:020000040800F2
:10000000C807002091010008A13C000885310008C4
:100010009D3C0008F9040008BD3D000800000000F8
:10002000000000000000000000000000A93C0008E3
:10003000FD04000800000000A53C0008AD3C0008DD
:10004000AB010008AB010008AB010008AB010008E0
:10005000AB010008AB010008AB010008AB010008D0
:10006000AB010008AB010008AB010008AB010008C0
:10007000AB010008AB010008AB010008AB010008B0
:10008000AB010008AB010008AB010008AB010008A0
:10009000AB010008AB010008AB010008AB01000890
:1000A000AB010008AB010008AB010008B53C00083B
:1000B000AB010008AB010008AB0100088931000862
:1000C000AB010008AB010008AB010008AB01000860
:1000D000AB010008AB010008AB010008AB01000850
:1000E000AB010008AB010008AB01000800F002F80A
:1000F00000F03FF80AA090E8000C82448344AAF183
:100100000107DA4501D100F034F8AFF2090EBAE880
:100110000F0013F0010F18BFFB1A43F0010318473B
:10012000DC500000FC500000103A24BF78C878C1B1
:10013000FAD8520724BF30C830C144BF04680C60ED
:10014000704700000023002400250026103A28BF35
:1001500078C1FBD8520728BF30C148BF0B60704739
:10016000642900F07D80002070471FB51FBD10B5C9
:1001700010BD00F02AF91146FFF7F7FF03F030FF3A
:1001800000F048F903B4FFF7F2FF03BC00F050F9A8
:100190000948804709480047FEE7FEE7FEE7FEE71B
:1001A000FEE7FEE7FEE7FEE7FEE7FEE70448054957
:1001B000054A064B70470000B13C0008ED000008FE
:1001C000C8010020C8070020C8030020C803002081
:1001D0000FB41CB5074B06AA7B44694600900598EE
:1001E00000F0DBF80020694600F0EAF81CBC5DF87E
:1001F00014FB0000E50100002DE9F0410E46044625
:10020000002020622046E168884730B3252805D0C9
:10021000D4E901219047206A401CF2E7E1682046BA
:1002200000278847050018D0A5F14100192802D8F9
:1002300020354FF400673246294620462760FFF7F5
:100240008FFF40B1012804D0F61D26F007060836BE
:10025000D8E7361DD6E72846DAE7206ABDE8F08100
:100260002DE9F0410646002410687529314616A58F
:1002700010D0AFF30080002802DA404213A507E057
:1002800031688A0701D512A502E0490704D511A5F6
:10029000012401E0AFF3008000210A2206F12407C7
:1002A00009E0B0FBF2FCB0FBF2F302FB1C003030C3
:1002B00078541846491C0028F3D123462A46304674
:1002C000BDE8F04100F00BB8000000002D00000078
:1002D0002B000000200000007047704770472DE998
:1002E000F0470D4699469246044600F124080168FD
:1002F000880604D5E06921F01001216000E00120AA
:10030000A84201DD471B00E00027A1697A1902EB32
:100310000900081AA0612078C00602D42046AFF375
:100320000080002608E0D4E901211AF80600904771
:10033000206A401C761C20624E45F4DB2078C00603
:100340000AD52046AFF3008006E0D4E90121302031
:100350009047206A401C2062381EA7F10107F4DC98
:1003600007E0D4E9012118F805009047206A401CF5
:100370002062281EA5F10105F3DC2046AFF30080C2
:100380002078000602D50220BDE8F0870120FBE7B7
:1003900001694A1C02610878704700B58FB0CDE949
:1003A00001310021059105497944CDE90310114639
:1003B0006846FFF721FF0FB000BD0000E5FFFFFF1B
:1003C0000A6802F8010B0A607047754600F02CF8C5
:1003D000AE4605006946534620F00700854618B032
:1003E00020B5FFF7E3FEBDE820404FF000064FF0D8
:1003F00000074FF000084FF0000BAC46ACE8C00916
:10040000ACE8C009ACE8C009ACE8C00921F00701BC
:100410008D46704710B50446AFF300802046BDE816
:100420001040FFF7AFBE00000048704710000020EA
:1004300001491820ABBEFEE726000200704700000D
:10044000B0B582B004460020019021688A68D207C6
:100450004FD1886840F00100886040F20800C2F285
:10046000000000684DF68361C4F21B31A0FB01015E
:10047000880C01900198A0B1019801380190019871
:1004800078B1019801380190019850B10198013874
:100490000190019828B10198013801900198002835
:1004A000EAD100F037FD21688968C9071CD10546EB
:1004B00003E000BF8068C0071AD100F02BFD411B8C
:1004C00020680329F6D38168C907F3D1A06A40F0F8
:1004D0001000A062E06A40F00100E062002084F8B1
:1004E0002400012002B0B0BD002002B0B0BD00BFAA
:1004F000002002B0B0BD0000FEE700007047000021
:1005000010B581B00022009290F82420012A03D176
:100510000221084601B010BD4B680122062B80F86D
:10052000242017D8D0F800C003EB83035A1F1F23E1
:10053000DCF834E003FA02F40B682EEA040403FA50
:1005400002F22243CCF83420092B03EB430219D9E1
:1005500036E000BFD0F800C00C2B03EB83021DD89F
:10056000233A1F23DCF830E003FA02F40B682EEA8A
:10057000040403FA02F22243CCF83020092B03EBE7
:1005800043021DD8DCF81030072489689440A34347
:1005900091401943CCF81010002130E0413A1F235C
:1005A000DCF82CE003FA02F40B682EEA040403FAE8
:1005B00002F22243CCF82C20092B03EB4302E1D9B1
:1005C000DCF80CE01E3A0724896894402EEA040403
:1005D000914023F001022143102ACCF80C100DD1D8
:1005E00042F20841C4F20101A1F1080294450DD084
:1005F000816A41F020018162012100E00021002296
:1006000080F82420084601B010BD00BF0A6812021D
:1006100030D40A68102B42F400020A602CD140F258
:100620000801C2F2000109684DF68362C4F21B3270
:10063000A1FB0212910C01EB81014900009100998C
:10064000E1B10099013900910099C9B100990139CE
:1006500000910099B1B1009901390091009999B1C7
:10066000009901390091009900294FF00001E8D16B
:10067000C5E700BF0021C2E70021C0E70021BEE7B7
:100680000021BCE70021BAE70021B8E70068C06C90
:1006900070470000B0B5002800F0A8800446806ACA
:1006A00020B121688868C0070BD114E00020E06207
:1006B00084F82400204600F09BF821688868C00771
:1006C00009D0886820F00100886000F023FC2168D0
:1006D0008A68D20726D1A06AC0063AD4A06A41F23D
:1006E000021290430230A062E069D4E9013240EA8C
:1006F000030C531EB3FA83F35D091346B2F5807FF2
:1007000018BF2B02207D257B01284CEA450030D103
:1007100035B3A56A45F02005A562E56A45F00105F7
:10072000E56226E0054602E08868C007D3D000F005
:10073000F1FB401B21680328F6D38868C007F3D07B
:10074000A06A40F01000A062E06A40F00100E062A0
:10075000A06AA06A40F01000A0620120B0BD00BFF6
:10076000D4F818C04EF60005CFF6FF7505EB4C35F2
:100770002B434D68B2F5807F25F4694543EA0503B4
:100780004B608B684FF2FD75CFF6E17503EA050308
:1007900043EA00038B6001D0012A07D122690023BC
:1007A000CFF6F07303EB025201E000BF0022CB6AE8
:1007B00023F470031A43CA62896840F6FE62CFF6DA
:1007C0001F721140814207D10020E062A16A01221C
:1007D00062F30101A162B0BDA06A40F0100020F0F8
:1007E0000200A062E06A40F00100E0620120B0BDBA
:1007F00080B586B0014640F60000C4F201000968E9
:1008000000F5E05291424FF00001CDE9041101D012
:1008100006B080BD41F21801C4F202010A6842F438
:1008200000720A600A6802F400720192019A0A6872
:1008300042F004020A60096801F004010191019983
:10084000012102910321039102A900F04FFA06B0A1
:1008500080BD0000F0B581B000270D46044600972A
:1008600000F058FB21688A68D20543D406464868E0
:10087000C00503D4C86A10F4700F45D040F20800D8
:10088000C2F200000768022001F024F9216844F652
:1008900024130A69B7FBF0F0C2F292431A4206D160
:1008A000CA6844F62413C0F292031A425ED00A6961
:1008B00042F29243C1F249231A4207D1CA6842F276
:1008C0009243C0F249031A4200F0C0800A6949F21B
:1008D0004923C0F224031A424FF0FC0257D1CF68DB
:1008E0001F4208BF5422009B02FB00F7BB4253D3B8
:1008F000C3E000BFA06A40F02000A06284F824702A
:10090000012001B0F0BD00BF0868800700F1B5808C
:10091000681C00F0A880FDB90868800772D50868D7
:10092000800700F1AA80086880076BD508688007F7
:1009300000F1A3800868800764D50868800700F18B
:100940009C80086880075DD508688007E4D594E03E
:100950000868800700F1918000F0DCFA801B2168B4
:10096000A842F5D908688007F2D44BE00A6942F240
:100970009243C1F249231A424FF0290207D1CB68B2
:1009800042F29247C0F249073B4208BF1422009B43
:1009900002FB00F7BB4270D2681C4FD055BB0098D9
:1009A000B8422FD30098013000900098B84264D22A
:1009B0000098B84226D30098013000900098B842C1
:1009C0005BD20098B8421DD3009801300090009887
:1009D000B84252D20098B84214D300980130009027
:1009E0000098B842DBD348E00098013000900098AE
:1009F000B84233D200F08EFA801BA842F4D9009896
:100A0000B842F1D2A06A40F00400A062002084F84D
:100A10002400032001B0F0BD009801300090009840
:100A2000B8422AD20098013000900098B84224D2EF
:100A30000098013000900098B8421ED20098013012
:100A400000900098B842E7D317E000BF5422009B03
:100A500002FB00F7BB429FD30FE000BF21680CE010
:100A60000868800709D40868800706D408688007EA
:100A70005CBF08685FEA8070F2D56FF01200086012
:100A8000A06A40F40070A062886800F46020B0F5AD
:100A9000602F01D1207B18B1002001B0F0BD00BF54
:100AA000A06A20F48070A062A06AC004F4D4A06A96
:100AB00040F00100A062002001B0F0BD10B5044676
:100AC00090F82400012804BF022010BD012084F802
:100AD00024002046FFF7B4FC20B1002184F8241044
:100AE00010BD00BF42F2044C2068A16AC4F2010CA0
:100AF00040F2013291430CF57F7201F58071904212
:100B0000A16233D0A16A21F48011A1624168490534
:100B100004D5A16A012363F30D31A162A16A002308
:100B2000C9044FF0000144BFE16A21F00601E1620F
:100B30006FF0020184F824300160816801F46021C3
:100B4000B1F5602F06D190420AD1DCF8001011F403
:100B5000702F05D0816841F480118160002010BDA4
:100B6000816841F4A0018160002010BDDCF8001014
:100B700011F4702FC6D0A16A41F48011A162DCF893
:100B800000104905C5D4C9E7B0B5044690F8240063
:100B9000012804BF0220B0BD0121206884F8241080
:100BA0008168C90709D0816821F00101816000F0E6
:100BB000B1F921688968C9070ED1214651F8280F7B
:100BC00041F2011220EA0202002042F001020A6012
:100BD000002184F82410B0BD054602E08068C007FB
:100BE000EBD000F097F9411B20680329F6D3816808
:100BF000C907F3D0A06A214640F01000A06251F866
:100C00002C2F0120E1E7000080B590F82110022987
:100C100024D10268116821F00E0111602F211368A0
:100C2000C4F202018A4240F20401C4F2020123F03C
:100C30000103136016DD3023C4F202039A421DD073
:100C40004423C4F202039A421CD05823C4F2020384
:100C50009A421DD14FF4803322E000BF042181630A
:100C6000012080BD0823C4F202039A420ED01C2347
:100C7000C4F202039A420BD1102311E04FF48073A7
:100C80000EE000BF4FF480530AE000BF012307E0ED
:100C900001F1680C4FF08073624508BF4FF4801378
:100CA0000B60012180F82110426B002180F8201098
:100CB0000AB190470021084680BD000090F821004D
:100CC00070470000B0B5044600F024F9054640F234
:100CD0000000C2F200000078611C18BF044400BF8D
:100CE00000F018F9401BA042FAD3B0BD2DE9F04F37
:100CF00082B00E68002E00F0038141F20042C4F27F
:100D00000102042340F2004E904208BF03234FF635
:100D1000FF7CC4F2010E009300240123C1F2100CE9
:100D20004FF0000A4FF0000949E000BF012704F02E
:100D30000C030F229A402BEA020207FA03F34FEA50
:100D40009A051A4346F82520D1F804B040F20C4524
:100D50005FEACB22DEF8082054BF22EA080242EA0A
:100D60000802C4F20105CEF808202A685FEA8B2346
:100D700054BF22EA080242EA08022A605FEA8B3383
:100D8000DEF8042054BF22EA080242EA08025FEAC1
:100D9000CB33CEF80420DEF800204FF0010354BF1F
:100DA00022EA080242EA0802CEF800200E680AF1A0
:100DB000010A36FA0AF204F1040400F0A18003FAF1
:100DC0000AF816EA080FF1D04E68664512DC122EBA
:100DD00056D8DFE806F0350B45495555555555555C
:100DE000555555555555554D510000BFD1F80C90EE
:100DF00046E000BF4FF6FF72C1F2210296420FDCBF
:100E00000022C1F2110296421AD00022C1F212024F
:100E1000964215D00022C1F22102964210D02FE056
:100E20000022C1F2220296420AD00022C1F231020F
:100E3000964205D00022C1F23202964220D100BF74
:100E40008A684AB1012A14BFC0F81480C0F8108023
:100E50004FF0080914E000BF4FF0040910E000BF94
:100E6000CA6802F108090BE04FF0000908E000BF72
:100E7000CA6802F1040903E0CA6802F10C0900BF64
:100E800022460646BAF1080F24BF203A04363768D6
:100E90000F25954027EA050509FA02F22A43326038
:100EA000CA79D2067FF582AF41F21803C4F2020379
:100EB0001A68AEF57E7642F001021A601A6802F0F6
:100EC00001020192019A2AF0030256F802B040F69C
:100ED0000002C4F20102904210D040F60042C4F277
:100EE000010290423FF422AF41F20002C4F201023B
:100EF000009F904208BF022719E700BF002716E7AE
:100F000002B0BDE8F08F0000002A08BF09040161AB
:100F10007047000040F2C010C2F200000068704745
:100F20007047000070470000F0B581B007680446C4
:100F30007868E26A94F83E3094F83DE0402B01D0A6
:100F4000102B27D1BE697D69E90751D1B2F12A4F33
:100F500000F0BE82B2F52A0F00F0BA8200F40072EF
:100F60004FF0010C29078CEA522C45D5002A43D0BA
:100F7000606B616CC9B2396118B1806A002840F0B9
:100F80002481A06B002800F0A382806A002840F032
:100F90001C819DE2216C00F4007300290CBFBE6926
:100FA00000267D69A90753D5002B51D0206C00285D
:100FB00018BFBE6994F83D0000F02800282840F0D2
:100FC00093807868002320F480607860012020EA14
:100FD000960130064FF0180058BF0C20225A2046C8
:100FE00084F83C3001B0BDE8F040FFF79BBF00BF84
:100FF000810557D44FF0010CA90759D5BCF1000F5A
:1010000056D194F83E30E06A226B94F83D102229C4
:1010100040F0E280216D002908BF402B00F0DC8009
:10102000216D002940F032812169B1F5404F40F037
:101030002D810020009078690090B8690090009898
:10104000386840F480703860206D013093E200BF52
:10105000E90655D5002B53D094F83D50786820F41C
:10106000E06078600020009078690090386840F077
:10107000010038600098386820F480603860786833
:10108000000540F1408105F0F7002646222840F097
:10109000198156F8380F0168496826F80E1C36F891
:1010A0000E1C17E1E06AB0F52A0F5FD1012062E063
:1010B0007968720701F4006100F19880002940F01E
:1010C0000782690605F0040140F1AE8110F48060EA
:1010D00000F0AA81002940F0A781204601B0BDE8B8
:1010E000F04002F023BA00BF00200090796900911F
:1010F000B9690091009984F83C0001B0F0BD00BFCF
:101100000EF0F70100F48062212905F0040040F0A0
:101110008380290640F14881002A00F0458100289B
:1011200040F0428194F83D00618D002900F0D081AB
:10113000616A11F8012B3A616162618D0139618543
:10114000618D002908BF292840F0C28178682821D4
:1011500020F48060786021202063204684F83D10D0
:1011600001B0BDE8F04000F0FBBB00BFE06AB0F1A9
:101170002A4F01D10820E06294F83E0040280BD1AC
:10118000206D616C002801F0FE0018BF40F00100E6
:10119000386101B0F0BD00BF2069B0F5804F65D166
:1011A00094F83D00616C212801F0FE0118BF013167
:1011B0003961606B08B1806A38B9A06B002800F013
:1011C0008781806A002800F08381786840F400609D
:1011D000786001B0F0BD00BF0020009078690090F9
:1011E000B8690090009801B0F0BD00BF002940F040
:1011F0006F81290605F0040140F1228110F480601E
:1012000000F01E81002940F01B81204601B0BDE89E
:10121000F04002F06FBA00BF690640F1D980002AA1
:1012200000F0D680002840F0D38094F83D00618D16
:10123000002900F04D813969626A1170616A0131DB
:101240006162618D01396185618D002908BF2A289D
:1012500040F03E812068416821F480614160222095
:1012600028212063204684F83D10D8E0206D002816
:1012700000F0C080206D012840F02A81606C0621BA
:1012800001EAD010F130386101B0F0BD618D61B17B
:10129000618D012940F0E480202818BF082840F023
:1012A0001981386820F480603860002000907869E7
:1012B0000090B86900900098386840F40070386079
:1012C00058E100BF56F8340F0168496826F80A1C37
:1012D00036F80A1C19B1216C41F0040121647968C7
:1012E00021F400617960FFF7E9FC01280BD0306838
:1012F00043F29511C0F600014163FFF785FC10B180
:101300003068416B8847608D60B12068416949074A
:1013100030D4416949063AD4608D18B1206C40F050
:1013200004002064206C28B1204601B0BDE8F040E4
:1013300001F0C2BF2A2D07D100202063282084F8A5
:101340003D00204600F00AFB94F83D00282859D1C2
:101350000020CFF6FF70E06200212020216384F896
:101360003D00204684F83E1001B0BDE8F04000F09A
:10137000C7B900BF0069616A0870616A20680131FD
:101380006162618D0139618541694906C4D5006991
:10139000616A0870606A01306062608D0138608542
:1013A000608D0028BAD1BDE7002818BF002B00F0DF
:1013B0008F80608D002800F08B80606A10F8011B20
:1013C00039616062608D0138608501B0F0BD00BF99
:1013D000002818BF002B00F07B80608D002877D09C
:1013E0003869616A0870606A01306062608D013836
:1013F00060856DE0606C062101EAD010F030386144
:1014000001B0F0BD206B222818BF222D60D1002131
:101410002020216384F83D00204684F83E1001B06E
:10142000BDE8F04000F09ABAB1FA81F0400950EA04
:101430000C004DD1204601B0BDE8F04002F002B8EA
:10144000B1FA81F0400950EA0C0041D1BEF1210F00
:1014500036D1204601B0BDE8F04002F009B900BF26
:10146000618D022914D1102858D8012114228140FD
:10147000C0F20102114251D0396841F480613960F3
:101480000021009179690091B9690091009954E0B7
:10149000396841F4806139607968090563D5421E75
:1014A0001F2A5DD80121914048F28102C8F2000252
:1014B000114255D0786840F48050786053E000BF06
:1014C000402B05D1204601B0BDE8F04002F06CB9D8
:1014D00001B0F0BD10F5803F0CD1386820F4806079
:1014E0003860786800057FF5E0AE386820F48060E9
:1014F000386038E0122A02D101287FF4D2AE1028D9
:10150000F3D8012101FA00F01421C0F201010842D0
:10151000EBD0386840F48060386024E0396841F4EA
:10152000006139600021009179690091B9690091E9
:101530000099396821F4806139607968090519D505
:10154000421E1F2A1AD80121914048F28102C8F296
:101550000002114212D0786840F48050786009E0AF
:1015600010F5803FA6D00020009078690090B869FF
:10157000009000980020206501B0F0BD10F5803F7C
:10158000E9D0F7E77047000070B5B8B3044690F8AB
:101590003D0028B9002084F83C00204600F0A4F962
:1015A000242084F83D002068016821F001010160D9
:1015B000016841F400410160016821F400410160CB
:1015C00000F066FC48F28041C0F21E0140F60013B4
:1015D000D4F804E088424FF00001C0F23D0348F225
:1015E000A16C4FF0000238BF01219842C0F2010CFB
:1015F00038BF0122E64538BF0A460AB1012070BD56
:101600004DF68361C4F21B31A0FB01122168950CD9
:101610004B684FF4967623F03F0343EA92437543B9
:1016200044F6D3564B60C1F262060B6AA5FB065620
:10163000B50923F03F03E64538BF950C6A1C1A43F1
:101640000A62CA6948F2A0664CF6FF73C0F201064E
:10165000B64522EA03020BD801384FEA4E03B0FB2D
:10166000F3F001306FF31F30042898BF04201EE010
:10167000A368013863B119230EFB03F3B0FBF3F049
:1016800001306FF31F3078B100F5804008E000BFF3
:101690000EEB4E03B0FBF3F001306FF31F3028B1B7
:1016A00000F5004003E000BF012000E001201043EE
:1016B000C8610868D4E9072320F0C000104318432C
:1016C0000860886848F2FF3204F10C0690434CCE63
:1016D00018431043A5698860C86820F0FF003043B4
:1016E0002843C860086840F00100086000202021FD
:1016F000206484F83D10206384F83E0070BD000033
:101700007047000070470000704700002DE9F0436B
:1017100083B01E46174689460446FFF7FBFB94F844
:101720003D10202920D10546206800BF8169890726
:1017300016D5FFF7EFFB411B20681A29F6D3816904
:101740008907F3D500202021206384F83D1084F818
:101750003E00216C41F02001216484F83C0003E04C
:1017600094F83C10012903D1022003B0BDE8F083B6
:10177000012184F83C100168C90703D1016841F0D8
:1017800001010160016840F2020821F4006101607A
:10179000212184F83D10102184F83E10002121649D
:1017A00067626685618DC0F201082185A8F102118A
:1017B000E162E16A0A9E11F5803F18BF01291DD13F
:1017C000016841F48071016020464FF00111002250
:1017D0003346009502F0A8F850B120680068C005B3
:1017E00044BF4FF400702064012003B0BDE8F083D3
:1017F0002069B0F5804F07D1FE2015E00829DFD021
:10180000216B1229DCD0DFE7062000EAD91021681D
:10181000F030086108F10601204632462B4602F0FE
:101820006DF90028E0D1FF20216800EA0900086175
:101830002046414632462B4602F060F90028D3D1BB
:10184000002002902068416902918069029002980C
:1018500006E000BF204631462A4602F005F818BBD4
:10186000208D68B3204631462A4602F0B7F9D8B930
:10187000606A2168024612F8013B0B616262628D68
:10188000013A6285228D531E23854F697F07E1D57A
:101890001B04DFD0437802300B616062608D013839
:1018A0006085901E2085D5E7206C04289CD1206897
:1018B000016841F400710160012003B0BDE8F083CC
:1018C0002068016841F400710160202084F83D0027
:1018D000002084F83E0084F83C0003B0BDE8F083AB
:1018E000704700007047000010B586B045F2004117
:1018F0000068C4F2000100228842049202D006B0BF
:1019000010BD00BF41F21804C4F20204206840F088
:1019100008002060206800F0080001900198C020B5
:101920000290122003900320059001F5384002A98F
:10193000FFF7DCF96068002140F400106060606827
:10194000002200F40010019001981F2000F086F89A
:101950001F2000F06FF806B010BD000070470000B7
:101960007047000040F2000040F2C011C2F20000D7
:10197000C2F2000100780A68104408607047000055
:1019800080B542F20000C4F20200016841F010018B
:101990000160032000F08EF80F2000F005F800F041
:1019A00027F8002080BD000070B540F20006C2F2AA
:1019B000000640F208013278C2F200014FF47A7357
:1019C0000968B3FBF2F20446B1FBF2F1084600F0FD
:1019D00061FC0F2C4FF0010508D838B94FF0FF30EB
:1019E00021460022002500F039F87460284670BDB9
:1019F00082B041F21800C4F202000168022241F0F4
:101A000001010160016801F0010101910199416842
:101A100041F080514160406800F080500090009893
:101A20000420C4F20100016862F31A61016002B08F
:101A300070470000002848BF7047C1B200F01F0087
:101A4000012202FA00F04EF20012CEF2000242EA47
:101A5000D10121F0030108607047000010B54EF677
:101A60000C5CCEF2000CDCF80030C3F3022E8EF0DA
:101A70000704042C28BF0424BEF103034FF0FF3EEB
:101A80000EFA04F438BF0023A14399400EFA03F381
:101A90009A43114300F00F0200F160430901043A38
:101AA00003F564436244002848BF02F10C03197037
:101AB00010BD00004EF60C51CEF200010A684FF640
:101AC000FF031A4060F30A2242F0806040F0FD708C
:101AD0000860704780B5012818D0022836D0102839
:101AE00032D141F20401C4F202010A6851F8040C37
:101AF000C00129D5C2F383402DA3185CD2033DD485
:101B000040F60012C0F23D02504343E041F20400AF
:101B1000C4F20200C16940F202320A40B2F5817F8C
:101B200004BF4FF4004080BD01F44071B1F5407F27
:101B30001CD0B1F5007F07D1006A49F6404180070B
:101B400001EAE07080BD00BF002080BD00F0B4F964
:101B500041F20401C4F2020109680222C1F3813199
:101B600002EB4101B0FBF1F080BD00BF50F8040C66
:101B70004FF22441800301EAE07080BD0A6810A39F
:101B8000C2F340429A5C41F20023C0F27A03B3FBF5
:101B9000F2F250430968490248BF80BD4AF6AB21C2
:101BA0004000CAF6AA21A0FB0101480880BD00BF81
:101BB00002030405060708090A0B0C0D0E0F10108E
:101BC000010200002DE9F04182B00446007841F2A4
:101BD0001C06C007C4F202064AD0306810F08058D4
:101BE00008D1306840F080503060306800F080509C
:101BF0000190019847F20007C4F200073868C00559
:101C000012D4386840F480703860FFF783F90546D5
:101C10003868C00508D4FFF77DF9401B6428F7D960
:101C2000032002B0BDE8F081706810F4407012D05B
:101C3000616801F4407188420DD0706840F2404202
:101C4000C4F24222012320F4407113600023C00734
:101C5000136071602AD17068616820F44070084395
:101C6000B8F1000F706003D1306820F08050306010
:101C70002068810707D556F8181CA26821F4404156
:101C8000114346F8181CC00604D4002002B0BDE879
:101C9000F08100BF56F8180CE16820F4800008437A
:101CA00046F8180C002002B0BDE8F081FFF732F9C9
:101CB000054641F2883700BF70688007CBD4FFF734
:101CC00029F9401BB8424FF00300F5D9EBE70000BB
:101CD0002DE9F04381B0002800F0858042F2000831
:101CE000C4F202080446D8F800000D4600F00700D0
:101CF00088420CD2D8F8000020F007002843C8F82A
:101D00000000D8F8000000F00700A8426BD120685E
:101D100041F204098107C4F2020917D5410705D52C
:101D2000D9F8001041F4E061C9F80010010705D5A9
:101D3000D9F8001041F46051C9F80010D9F800102A
:101D4000A26821F0F0011143C9F80010C00741D189
:101D5000D8F8000000F00700A8420CD9D8F800001D
:101D600020F007002843C8F80000D8F8000000F071
:101D70000700A84237D12068410707D5D9F80010DD
:101D8000E26821F4E0611143C9F80010000708D5AA
:101D9000D9F80000216920F4605040EAC100C9F878
:101DA0000000D9F8002002F00C00082841F20020C1
:101DB000C0F27A0050D145F2AC13C2F38341C0F6B1
:101DC0000003595CD2033BD440F60010C0F23D0042
:101DD000484341E0606802280AD001282AD159F816
:101DE000041C890308D4012001B0BDE8F08300BFC2
:101DF00059F8041C8901F6D5D9F8001021F0030127
:101E00000843C9F80000FFF785F8064641F2883715
:101E1000D9F80000616800F00C00B0EB810F97D09A
:101E2000FFF778F8801BB842F2D9032001B0BDE873
:101E3000F08300BF59F8041C8907D4D5DCE700BF44
:101E4000D9F8002045F2AA13C2F34042C0F60003BD
:101E50009A5C4843B0FBF2F0D9F8001045F29212B8
:101E6000C1F30311C0F60002515C40F2080220FAEF
:101E700001F140F20400C2F200000068C2F2000268
:101E80001160FFF791FD002001B0BDE8F083000074
:101E900040F2080041F20401C2F20000C4F2020163
:101EA0000068096845F2A212C1F30221C0F60002DF
:101EB000515CC8407047000040F2080041F2040144
:101EC000C2F20000C4F202010068096845F2A212E1
:101ED000C1F3C221C0F60002515CC8407047000047
:101EE0002DE9F04182B0002868D00446007841F224
:101EF0000006C007C4F2020625D0706800F00C008E
:101F000004281BD0706800F00C00082802D170680B
:101F1000C00313D46068002800F06881B0F5A02FDA
:101F200000F07C81B0F5803F00F07C81306820F4C7
:101F300080303060306820F4802076E130688003A3
:101F400001D56068D0B32078800718D5706810F08C
:101F50000C0F07D0706800F00C0008286ED1706874
:101F6000C0036BD43068800702D52069012825D1D1
:101F70003068616920F0F80040EAC10030602078E4
:101F800000071FD42078400732D4E56995B1706806
:101F900000F00C00082840F08F80012D0ED07068F2
:101FA000216A00F480328A4208D1616A00F470101C
:101FB000884203D1002002B0BDE8F081012002B0C8
:101FC000BDE8F081A069002862D00020C4F2422060
:101FD0000121C0F88014FEF79DFF0546706A800756
:101FE00000F18C80FEF796FF401B0228F6D92AE10B
:101FF000F06910F0805808D1F06940F08050F0612D
:10200000F06900F080500090009847F20007C4F299
:1020100000073868C00529D4386840F480703860FB
:10202000FEF778FF054600BF3868C0051ED4FEF7EE
:1020300071FF401B6428F7D905E100BF2069002823
:1020400040F20000C4F2422000F0828001210160D1
:10205000FEF760FF054600BF306880073FF588AF98
:10206000FEF758FF401B0228F6D9ECE0E068002894
:1020700000F08080052800F09780012800F098800B
:10208000306A20F001003062306A20F0040092E0F3
:102090000020C4F242200021C0F88014FEF73AFF6D
:1020A000054600BF706A80077FF56CAFFEF732FF10
:1020B000401B0228F6D9C6E00027C4F242270020C0
:1020C0003866FEF727FF022D05460BD130688001E8
:1020D00040F1BE80FEF71EFF401B02284FF00300B8
:1020E000F4D968E7306880017FF564AFFEF712FF2E
:1020F000401B02284FF00300F4D95CE740F20800CF
:10210000C2F20000006844F6D351C1F26201A0FBA4
:102110000101480A019000BF00BF0198411E00283C
:1021200001913FF42FAF00BF0198411E002801919B
:102130003FF428AF00BF0198411E002801913FF4F1
:1021400021AF00BF0198411E00280191E4D119E799
:1021500000210160FEF7DEFE054600BF3068800703
:102160007FF50DAFFEF7D6FE401B02284FF00300AF
:10217000F4D920E7306A20F001003062306A20F0A4
:1021800004003062FEF7C6FE054641F2883700BF04
:10219000306A800720D5FEF7BDFE401BB8424FF0E5
:1021A0000300F5D907E700BF306A40F00400306251
:1021B000306A40F001003062FEF7ACFE054641F2A5
:1021C000883700BF306A800706D4FEF7A3FE401BA5
:1021D000B842F7D937E000BFB8F1000F7FF4D5AEB1
:1021E000F06920F08050F061CFE600BF306820F445
:1021F00080303060306820F480203060FEF78AFE46
:10220000054600BF306880037FF59DAEFEF782FE75
:10221000401B64284FF00300F4D9CCE6306840F44A
:1022200080203060306840F480303060FEF772FE0D
:10223000054600BF306880033FF585AEFEF76AFEB5
:10224000401B6428F6D9032002B0BDE8F08100BF2E
:10225000206AB0F5803F05D17168A26821F4003191
:10226000114371607168626A21F47411114308436B
:10227000706001203866FEF74DFE0446306880012C
:102280003FF598AEFEF746FE001B02284FF0030014
:10229000F4D990E6411E0020B0EB116F1CBF012065
:1022A00070474EF21002CEF2000251604EF62351FA
:1022B000CEF20001F0230B7007219060116070478F
:1022C000704700007047000010B590F83C20012ACC
:1022D0004FF0020233D080F83D200268D2F804E0CB
:1022E000D2F808C00C682EF07003234340F2FF744C
:1022F000C4F20004A24253600ADCB2F1804F13D052
:1023000040F20043C4F200039A420DD011E000BF36
:1023100042F60043C4F201039A4205D040F600039E
:10232000C4F200039A4204D149682CF08003194397
:1023300091600121002280F83D1080F83C20104679
:1023400010BD0000002804BF0120704710B50446EE
:1023500090F83D0028B9002084F83C00204600F0A9
:1023600067F8022084F83D00206840F2FF7302689D
:10237000C4F2000342F6004C9842C4F2010C15DC92
:10238000B0F1804F1AD040F20041C4F200018842FF
:1023900014D0984218DCB0F1804F1DD040F20041BB
:1023A000C4F20001884217D01AE000BF604505D092
:1023B00040F60001C4F200018842EAD1A16822F08F
:1023C00070020A439842E6DD604505D040F6000100
:1023D000C4F20001884203D1216922F440720A4309
:1023E000A36922F08001D4F804E0E2681943604553
:1023F0000160C262C0F828E002D16169CCF83010F7
:1024000001214161002084F8461084F83E1084F8D0
:102410003F1084F8401084F8411084F8421084F88A
:10242000431084F8441084F8451084F83D1010BD22
:1024300080B586B0006840F20042C4F2000200217C
:102440009042059132D042F60041C4F20101884227
:1024500039D141F21800C4F20200016841F4006170
:102460000160016801F4006101910199016841F086
:1024700004010160006802A900F0040001900198C5
:102480004FF4807002900020CDE9030040F6000078
:10249000C4F20100FEF72AFC1B2000210022FFF7F6
:1024A000DDFA1B20FFF7C6FA06B080BD41F2180026
:1024B000C4F20200416841F002014160406800F04E
:1024C00002000190019806B080BD000080B590F830
:1024D0003C20012A4FF0020200F0C28080F83D202B
:1024E000D0F800C04FF67772DCF8083023EA020219
:1024F000CCF808200B684F2B28DC1F2B44DD202B49
:1025000045D0302B43D0402B40F0AC80D1F804E0D4
:10251000C968DCF82030DCF8202022F00102CCF879
:102520002020DCF8182022F0F00242EA011123F00A
:102530000A0242EA0E02CCF81810CCF82020DCF88F
:10254000081041F0470121F0300180E06F2B27DDBA
:10255000B3F5005F48D0B3F5805F7AD0702B40F0C0
:102560008180D1E901E3C968DCF8082043EA0E0361
:1025700022F47F4243EA01211143CCF80810DCF831
:10258000081041F0770162E00BB1102B6AD1DCF842
:10259000081021F07001194341F0070157E000BF16
:1025A000502B35D0602B5DD1D1F804E0C968DCF840
:1025B0002030DCF8202022F01002CCF82020DCF8BB
:1025C000182022F4704242EA013123F0A00242EACC
:1025D0000E12CCF81810CCF82020DCF8081041F0CE
:1025E000670121F0100132E0D1E901E3C968DCF8AC
:1025F000082043EA0E0322F47F4243EA01211143FB
:10260000CCF80810DCF8081041F480411FE000BF4E
:10261000D1F804E0C968DCF82030DCF8202022F092
:102620000102CCF82020DCF8182022F0F00242EA67
:10263000011123F00A0242EA0E02CCF81810CCF87D
:102640002020DCF8081041F0570121F02001CCF8DF
:1026500008100022012180F83D10002180F83C1074
:10266000104680BD0122F5E770B50446007F0128C1
:1026700023D12046002100F03DFD054602F04CFC30
:1026800040F27006C2F20006002DB06008BF70BDB7
:102690002046042100F02EFD6421484302F03CFC5A
:1026A000B468214602F042FBF06045F24040C4F6B7
:1026B0000940214602F03AFB306170BDF0B590F858
:1026C0003C30012B04BF0220F0BD4FEAB202032AC6
:1026D00022D8DFE802F00327476500BF0368D1E98D
:1026E00000C5D1F80CE01C6A1A6A40F2FF7722F0AC
:1026F00001021A621A4652F8186FC4F20007BB4270
:1027000072DCB3F1804F7BD040F20047C4F2000787
:10271000BB4275D08EE000BF0121002280F83C2032
:102720000846F0BD0368D1E900E6D1E902C11C6AA0
:102730001A6A360222F010021A621A4652F8185F1C
:102740004FF2FF07BE4325F4734561F30F3624F0C3
:10275000A0040EF00A0746EA050144EA07171160D3
:102760001F623AE00768D1E900C5D1E902313C6A4D
:102770003A6A61F3071522F480723A623A4652F8D7
:102780001C6F26F0F30645EA06014FEA5C0666F385
:10279000492411603C62116821F00C01116040E095
:1027A0000368D1E900E6D1E902C11C6A1A6A36025F
:1027B00022F480521A621A4652F81C5F4FF2FF0749
:1027C000BE4325F4734561F30F364FEA5E0746EAD0
:1027D000050167F34D3411601C6211684FEA0C2348
:1027E00021F4406111601CE042F60047C4F2010789
:1027F000BB4205D040F60007C4F20007BB4219D126
:1028000026F00306354324F00A070CF00A066EF39F
:10281000071537449D611F629F6927F00C079F6170
:102820008B681168194311600021002280F83C2058
:102830000846F0BD46F00105E5E70000002804BFAA
:102840000120704710B5044690F83D0028B90020DB
:1028500084F83C00204600F067F8022084F83D0030
:10286000206840F2FF730268C4F2000342F6004C95
:102870009842C4F2010C15DCB0F1804F1AD040F23E
:102880000041C4F20001884214D0984218DCB0F133
:10289000804F1DD040F20041C4F20001884217D0A1
:1028A0001AE000BF604505D040F60001C4F2000107
:1028B0008842EAD1A16822F070020A439842E6DD1C
:1028C000604505D040F60001C4F20001884203D102
:1028D000216922F440720A43A36922F08001D4F8EE
:1028E00004E0E268194360450160C262C0F828E074
:1028F00002D16169CCF8301001214161002084F8D7
:10290000461084F83E1084F83F1084F8401084F894
:10291000411084F8421084F8431084F8441084F87D
:10292000451084F83D1010BD7047000061B10829C2
:1029300016D0042919BF00F1410200F1450300F14E
:102940003F0200F143030FE090F83E2090F8423040
:10295000012A4FF0010208BF012B17D01046704723
:1029600000F1400200F1440312781B78012A4FF075
:10297000010208BF012BF1D1022208290CD0042941
:1029800010D180F83F2080F843200FE0022280F829
:102990003E2080F8422009E080F8402080F8442062
:1029A00004E000BF80F8412080F84520006801F075
:1029B0001F010122036A02FA01F123EA0102026205
:1029C000026A114340F2FF72C4F2000290420162B7
:1029D0000ADCB0F1804F13D040F20041C4F2000194
:1029E00088420DD013E000BF42F60041C4F201015D
:1029F000884205D040F60001C4F20001884206D1A9
:102A0000816801F00701062904BF002070470168B2
:102A1000002241F0010101601046704761B10829B0
:102A200016D0042919BF00F1410200F1450300F15D
:102A30003F0200F143030FE090F83E2090F842304F
:102A4000012A4FF0010208BF012B1DD0104670472C
:102A500000F1400200F1440312781B78012A4FF084
:102A6000010208BF012BF1D10222082918D0042944
:102A700022D180F83F2080F843204FEAB103032B96
:102A80004FF00102E2D821E0022280F83E2080F8D7
:102A900042204FEAB103032B4FF00102D6D815E0D4
:102AA00080F8402080F844204FEAB103032B4FF018
:102AB0000102CBD80AE000BF80F8412080F8452011
:102AC0004FEAB103032B4FF00102BFD845F2BC1C03
:102AD0000068C0F6000C5CF823C0C36801F01F0159
:102AE00043EA0C03C360036A02FA01F123EA01021C
:102AF0000262026A114340F2FF72C4F20002904285
:102B0000016209DCB0F1804F12D040F20041C4F202
:102B1000000188420CD012E042F60041C4F20101EB
:102B2000884205D040F60001C4F20001884206D177
:102B3000816801F00701062904BF00207047016881
:102B4000002241F0010101601046704710B5016894
:102B500004460869800744BFC8685FEA807039D4BA
:102B60000869400744BFC8685FEA40703ED40869FE
:102B7000000744BFC8685FEA007045D40869C00612
:102B800044BFC8685FEAC0604AD40869C0071CBF78
:102B9000C8685FEAC07051D10869000644BFC868C0
:102BA0005FEA006052D40869400644BFC8685FEA23
:102BB000406053D40869800646BFC8685FEA8060F9
:102BC00010BD6FF0200220460A61BDE81040FFF7FB
:102BD00079BB00BF6FF0020008610120207788698F
:102BE000800743D02046FFF73FFD45E06FF004002B
:102BF000086102202077886910F4407F40D0204689
:102C0000FFF732FD42E000BF6FF0080008610420CA
:102C10002077C86980073DD02046FFF725FD3FE0BB
:102C20006FF01000086108202077C86910F4407F19
:102C30003AD02046FFF718FD3CE000BF6FF00100DE
:102C40000861204600F054FA2168A5E76FF0800083
:102C500008612046FFF734FB2168A4E76FF04000CD
:102C60000861204600F08CFA2168A3E7204600F0B6
:102C70004DF8204600F0CAF92168002020776FE760
:102C8000204600F043F8204600F0C0F921680020FB
:102C900020776CE7204600F039F8204600F0B6F9BE
:102CA00021680020207769E7204600F02FF82046B1
:102CB00000F0ACF921680020207766E780B586B087
:102CC00040F200410068C4F20001002288420492F0
:102CD00002D006B080BD00BF41F21800C4F202006D
:102CE000026842F008020260006800F008000190EB
:102CF00001980120029002200390059001F5843094
:102D000002A9FDF7F3FF06B080BD00007047000088
:102D10002DE9F04390F83C30012B04BF0220BDE8C0
:102D2000F0834FEAB202032A3CD8DFE802F0034303
:102D300081BD00BF036842F600461D6A1A6AC4F2EC
:102D4000010622F001021A621A465C6852F818CF96
:102D5000B3428E68D1F800E025F0020545EA060589
:102D60000CD1CE68D1E9057824F4407425F00C0527
:102D700026F004063C43354344EA08042CF073076C
:102D800047EA0E075C609F614F6809695F631D62D7
:102D90009F6947F008079F619F6927F004079F61BB
:102DA000B2E000BF0121002280F83C200846BDE8C7
:102DB000F08300BF036842F600461D6A1A6AC4F237
:102DC000010622F010021A621A46D3F804C052F823
:102DD000184FB3428E68D1F800E025F0200545EA8F
:102DE000061510D1CE68D1E9058725F0C0096FF02E
:102DF000400505EA06152CF4406647EA080745EA4F
:102E0000090546EA870C24F4E64444EA0E27C3F891
:102E100004C09F614F6809699F631D629F6947F401
:102E200000679F619F6927F480679F616BE000BF27
:102E3000036842F600461D6A1A6AC4F2010622F4CB
:102E400080721A621A46D3F804C052F81CEFB342DB
:102E50008E680C6825F4007545EA062511D1CE6808
:102E6000D1E9058725F44069360240F2FF4526EA9C
:102E700005052CF4405647EA080745EA090546EAE5
:102E8000071C2EF073072743C3F804C0DF614F68A7
:102E90000969DF631D62DF6947F00807DF61DF69E9
:102EA00027F00407DF612FE0036842F60047D3F8FC
:102EB00020C01A6AC4F2010722F480521A621A462C
:102EC0005C6852F81C5FD1F800E08E68BB4204D108
:102ED0004F6924F4804444EA87142CF4005747EAED
:102EE000063725F4E64646EA0E265C60DE614E684B
:102EF00009691E641F62DF6947F40067DF61DF69EB
:102F000027F48067DF61090213681943116000210B
:102F1000002280F83C200846BDE8F083002804BF6A
:102F20000120704710B5044690F83D0028B90020F4
:102F300084F83C00204600F067F8022084F83D0049
:102F4000206840F2FF730268C4F2000342F6004CAE
:102F50009842C4F2010C15DCB0F1804F1AD040F257
:102F60000041C4F20001884214D0984218DCB0F14C
:102F7000804F1DD040F20041C4F20001884217D0BA
:102F80001AE000BF604505D040F60001C4F2000120
:102F90008842EAD1A16822F070020A439842E6DD35
:102FA000604505D040F60001C4F20001884203D11B
:102FB000216922F440720A43A36922F08001D4F807
:102FC00004E0E268194360450160C262C0F828E08D
:102FD00002D16169CCF8301001214161002084F8F0
:102FE000461084F83E1084F83F1084F8401084F8AE
:102FF000411084F8421084F8431084F8441084F897
:10300000451084F83D1010BD704700007047000067
:1030100041B1082910D0042914BF00F1410200F188
:103020003F020BE090F83E20012A1CBF01207047B0
:10303000022280F83E2013E000F140021278012ABB
:103040001CBF012070470222082907D0042914BFA1
:1030500080F8412080F83F2002E000BF80F8402047
:10306000006801F01F010122036A8A4023EA02017D
:103070000162036A42F64441C4F201011A43A1F11C
:103080004403984202620FD040F2FF71C4F2000183
:10309000884213DCB0F1804F1CD040F20041C4F2F2
:1030A0000001884216D01CE00A6842F400420A601F
:1030B00040F2FF71C4F200018842EBDD42F60041AC
:1030C000C4F20101884205D040F60001C4F20001BB
:1030D000884206D1816801F00701062904BF00205B
:1030E0007047016841F00101016000207047000055
:1030F000704700004FEAB101032984BF00207047E8
:10310000DFE801F0020E060A0068343000687047FC
:1031100000683C30006870470068403000687047C5
:103120000068383000687047B0B5044690F83C003D
:1031300001284FF0020008BFB0BD012584F83C50C3
:1031400084F83D00204600F0BBFD00284FF0010050
:1031500006D0002184F83D5084F83C10B0BD00BF7B
:103160002068C16821F04001C160C16821F480413C
:10317000C1600020002184F83D5084F83C10B0BDAF
:1031800070470000FEE7000040F2DC00C2F20000E1
:10319000FDF7CABE10B581B000210091406A40F22F
:1031A0000801C2F2000190F83DC009684BF2895253
:1031B000C908C1F2F842A1FB0212110A23225143AD
:1031C0000091009911B300990139009101680968D3
:1031D00089051FD50099C9B100990139009101688D
:1031E0000968890516D5009981B1009901390091C6
:1031F0000168096889050DD5009939B1009901392F
:103200000091016809688905DBD403E0016C41F095
:1032100020010164446B4FF0000E002C1CBF002104
:10322000A162816B00291CBF00228A620268002C07
:10323000136823F480631360A0F82AE018BFC4F871
:1032400034E000291CBF00234B63116821F0010109
:10325000116090F83D1060290CD1202180F83D10BC
:10326000002180F83E10016401B0BDE81040FDF778
:1032700057BE00BF0CF02801282911D1116841F078
:1032800001011160116841F4806111600021016346
:10329000282180F83D1001B0BDE81040FEF772B95A
:1032A000202180F83D10002180F83E1001B0BDE8DB
:1032B0001040FEF767B9000010B5044690F83D10C5
:1032C00090F83E00B0F1100218BF0122403818BF3C
:1032D0000120024208BF222934D001F0280028280A
:1032E0003AD100202063282084F83D0020684168FE
:1032F000090542D5416821F400614160606B90F896
:103300002110012958D1A06B43F29511C0F600019C
:103310004163FDF779FC002861D0206841694906C6
:1033200006D50069616A0870616A206801316162CE
:10333000016821F001010160202084F83D00A06BAC
:103340004BE000BF2068026822F40062026042681D
:10335000120505D50CE000BF20684268120507D4AD
:10336000602905D0202184F83D10002184F83E100A
:103370000021216341680905BCD494F83D106029FF
:1033800050D1202184F83D10002121644169490673
:1033900006D50069616A0870616A2068013161625E
:1033A000016821F0010101602046FDF7B9FD206CA4
:1033B000000717D11BE000BF43F29511C0F60001D2
:1033C0004163FDF721FC50B12168606B0A6822F06F
:1033D00001020A60202184F83D10416B8847206C6F
:1033E000000704D02068416821F4E061416094F84E
:1033F0003D00216C490758BF10BD282810D100207E
:10340000CFF6FF70E06200212020216384F83D00A8
:10341000204684F83E10BDE81040FEF771B900BFA9
:1034200010BD00BF4169490605D50069616A087091
:10343000606A013060622046FEF7A4F8206C000745
:10344000D0D1D4E7C16A428D042A07D10168426A0B
:103450004B6823F480634B60096911E0428D032AB5
:1034600016D102680229536823F48063536005D0A3
:10347000042903D0116821F4806111601169426A46
:103480001170416A01314162418D013941857047B6
:10349000428D022A12D101390F2919D8DFE801F033
:1034A00008121812181818181818181818181808C8
:1034B00001680A6822F480620EE000BF0168426A77
:1034C000CAE700BF01680A6842F4806204E000BFF6
:1034D00001680A6842F400720A600969426A117060
:1034E000416A02684B1C4362438D013B438512696C
:1034F0004A70416A026801314162418D013941855A
:10350000516821F440715160202180F83D1090F8FD
:103510003E200021402A80F83E1003D10163FEF7CF
:10352000DFB900BF12210163FEF7ECB881B090F85B
:103530003D10222977D1418D042913D30168426AB5
:1035400009691170416A01314162418D013941853A
:10355000418D032967D10068416821F48061416091
:1035600001B07047C26A022A58D0012956D80021FA
:10357000009140F20801C2F2000109684BF2895241
:10358000C908C1F2F842A1FB0212110A01EB810144
:1035900000910099013900910099002946D00168F5
:1035A0000A6892051AD50099013900910099E9B38A
:1035B00001680A68920511D50099013900910099B6
:1035C000A1B301680A68920508D5009901390091F4
:1035D000009959B301680A689205DAD40A6822F49E
:1035E00080620A604A6822F4E0624A600969426ABD
:1035F0001170416A01314162418D013941852021BB
:1036000080F83D1090F83E200021402A80F83E10BE
:1036100028D1016301B0FEF763B900BF00684168BB
:1036200021F48061416001B0704700BF016C41F03E
:10363000200101640168426A4B6823F4E0634B6037
:1036400009691170416A01314162418D0139418539
:10365000202180F83D10002180F83E1001B0FDF7D8
:1036600091BF00BF1221016301B0FEF74BB800000B
:10367000C16A90F83D20212A18BF7047428D4AB197
:10368000416A026811F8013B13614162418D0139C1
:103690004185704711F5803F18BF082918D101688E
:1036A0004A6822F4E0624A600A6842F400720A60E2
:1036B00000212022016380F83D2090F83E2080F810
:1036C0003E10402A08BFFEF70DB9FEF71DB800BF37
:1036D0002029E4D001684A6822F4E0624A6011219E
:1036E0000163002180F83E10202180F83D10FEF794
:1036F0000BB8000090F83D1090F83EC0C26A038DF0
:10370000002B08BF212919D0212905D0BCF1400F79
:1037100008BF222900D07047418D69B390F83E1050
:10372000402908BF00F040B8416A026811F8013B27
:1037300013614162418D01394185704712F5803F27
:1037400018BF082A1ED101684A6822F4E0624A6064
:103750000A6842F400720A6000212022016380F8A6
:103760003D2090F83E2080F83E10402A08BFFEF72A
:10377000B9B8FDF7C9BF00BF0068416821F4806196
:1037800041607047202ADED001684A6822F4E06276
:103790004A6011210163002180F83E10202180F849
:1037A0003D10FDF7B1BF000090F83D10026D5AB119
:1037B000026D012A14D10168826CD2B20A61016DD6
:1037C00001310165704700BFC26C816C012A15D1BF
:1037D0000268C9B21161016D02310165704700BF15
:1037E000026D022A12D1222918D101680A6842F416
:1037F00080720A60016D0131016570470268C1F392
:1038000007211161016D013101657047006841694F
:10381000090644BF00210161704700BF428D5AB1C3
:10382000212909D1416A026811F8013B1361416203
:10383000418D013941857047428D002A08BF2129F9
:10384000EAD101684A6822F4E0624A600A6842F4F8
:1038500000720A6000212022016380F83D2080F878
:103860003E10FEF73FB8000070B50368044653F8F9
:10387000140F400711D40E46481C29D086BB00BF48
:103880001868400527D4FDF745FB236853F8140F4B
:10389000400739D518684007F2D5002070BD00BF39
:1038A00018684007F9D41868400514D41868400710
:1038B000F3D4186840050ED418684007EDD4186892
:1038C000400508D4186840074FF0000048BF70BD9D
:1038D00018684005E4D56FF480601860042014E097
:1038E000154603E053F8140F4007D6D41868400576
:1038F000F1D4FDF70FFB401B2368B042F2D95869A1
:103900004007EFD4202000E0202000212022216366
:1039100084F83D2084F83E10226C1043206401207E
:1039200084F83C1070BD00002DE9F04105460068A8
:103930001E46144601F47F0201338FB242D0DDF8F7
:103940001880B2F5803F40F0878040693840C01B46
:10395000B0FA80F04009A04240F0C8804EB924E09F
:1039600040693840C01BB0FA80F04009A04240F0E6
:10397000BD80FDF7CFFAA0EB08012868B142EFD96E
:1039800041693940C91BB1FA81F14909A142E7D126
:103990009BE000BF40693840C01BB0FA80F040098E
:1039A000A0424FF0000040F0A680FDF7B3FA28686F
:1039B00041693940C91BB1FA81F14909A142E9D1F4
:1039C00083E000BFB2F5803F24D100BF4169394098
:1039D000C91BB1FA81F14909A14240F087804169D0
:1039E0003940C91BB1FA81F14909A14240F07E80FA
:1039F00041693940C91BB1FA81F14909A14275D128
:103A000041693940C91BB1FA81F14909A142DDD0B0
:103A10006CE000BF81693940C91BB1FA81F14909E5
:103A2000A14263D181693940C91BB1FA81F14909C9
:103A3000A1425BD181693940C91BB1FA81F14909C1
:103A4000A14253D181693940C91BB1FA81F14909B9
:103A5000A142DFD04AE000BF80693840C01BB0FA05
:103A600080F04009A04241D146B923E08069384046
:103A7000C01BB0FA80F04009A0423BD1FDF74AFAE2
:103A8000A0EB08012868B142F0D981693940C91B0F
:103A9000B1FA81F14909A142E8D116E080693840C4
:103AA000C01BB0FA80F04009A0424FF0000018BFE0
:103AB000BDE8F081FDF72EFA286881693940C91BFD
:103AC000B1FA81F14909A142E8D1002020212863FF
:103AD00085F83D1085F83E00296C41F020012964ED
:103AE00085F83C000120BDE8F08100BF0020BDE862
:103AF000F08100BF0020BDE8F0810000F0B581B08A
:103B0000044600681D4643698FB203EA0701B942C3
:103B100002D1002001B0F0BD41691646013201F426
:103B2000806125D0002940D1CEB100BFFDF7F2F968
:103B3000411B2068B14203D941693940B9424BD198
:103B400041693940B942E4D041694905EED52CE0DC
:103B500041693940B942DCD04169490525D4FDF7B6
:103B6000D9F9206841693940B942F1D0202024E0D8
:103B7000D9B941693940B942CBD04169490514D41A
:103B800041693940B942C4D0416949050DD4416900
:103B90003940B942BDD04169490506D4416939402F
:103BA000B942B6D041694905E3D5016841F40071D5
:103BB00001606FF4806141610420002120222163B3
:103BC00084F83D2084F83E10226C1043206484F871
:103BD0003C10012001B0F0BD2020EEE770B5036875
:103BE000044653F8140F000611D40E46481C29D081
:103BF00086BB00BF1868400527D4FDF78BF9236802
:103C000053F8140F000639D518680006F2D50020C5
:103C100070BD00BF18680006F9D41868400514D4B8
:103C200018680006F3D4186840050ED4186800061A
:103C3000EDD41868400508D4186800064FF000005D
:103C400048BF70BD18684005E4D56FF48060186007
:103C5000042014E0154603E053F8140F0006D6D4F0
:103C600018684005F1D4FDF755F9401B2368B042B0
:103C7000F2D958690006EFD4202000E0202000216E
:103C80002022216384F83D2084F83E10226C1043EA
:103C90002064012084F83C1070BD0000FEE70000A5
:103CA000FEE700007047000070470000FDF75ABEB5
:103CB0007047000040F23010C2F20000FEF746BF2D
:103CC00080B5D0F800E0DEF80800D1E900C320F0AC
:103CD000770023F0070210434FEA331340EA0C0049
:103CE000072BCEF8080009D80020DFE803F005050F
:103CF000050509233D5700BF80BD00BF012080BDE1
:103D0000BCF1050F04BF012080BDDEF82000DEF805
:103D1000202022F00102CEF82020DEF818200969C8
:103D200022F0F00242EA0111CEF81810CEF820007D
:103D3000002080BD88680969DEF82020DEF8203088
:103D400022F00A0223F00103CEF82030DEF818300A
:103D5000104323F0F00343EA0111CEF81810CEF817
:103D60002000002080BD00BF88680969DEF820209F
:103D7000DEF8203022F0A00223F01003CEF820302D
:103D8000DEF8183042EA001023F4704343EA0131B0
:103D9000CEF81810CEF82000002080BDD1E9020234
:103DA0000969DEF80830104323F47F4340EA01201C
:103DB0001843CEF80800002080BD0000FEE7000098
:103DC0002DE9F04184B048F68C0040F2DC04C0F6E6
:103DD0000C00C2F2000402904FF0640802AA2046D0
:103DE0004E210423CDF80080FDF790FC42F62D16FD
:103DF0004627C0F60D1603AD20464E212A46042361
:103E00000396CDF80080FDF781FC013FF4D104B0AA
:103E1000BDE8F08170B582B03220FCF753FF40F26C
:103E2000DC0443F63C06C2F20004C0F60C0664252E
:103E300001AA20464E21042301960095FDF766FC59
:103E40000520FCF73FFF01AA20464E2104230196DE
:103E50000095FDF75BFC0120FCF734FF01AA20462A
:103E60004E21042301960095FDF750FC0A20FCF733
:103E700029FF42F62C00C0F60C00019001AA204652
:103E80004E2104230095FDF741FC0A20FCF71AFFA0
:103E900042F62C00C8F68C00019001AA20464E2163
:103EA00004230095FDF732FC0120FCF70BFF40F6E0
:103EB0000C00C8F68C00019001AA20464E21042374
:103EC0000095FDF723FC0120FCF7FCFE40F60C00FA
:103ED000C1F61C00019001AA20464E210423009542
:103EE000FDF714FC0120FCF7EDFE0120FCF7EAFED3
:103EF00040F60C00C6F66C00019001AA20464E2147
:103F000004230095FDF702FC0120FCF7DBFE40F6E0
:103F10000C00CCF6CC00019001AA20464E210423CF
:103F20000095FDF7F3FB02B070BD0000012805D03D
:103F3000002808BF41F0800102E000BF41F0C0014D
:103F400080B582B021F00F00090100F10C020830A9
:103F50008DF8050001F10C008DF8060001F1080054
:103F60008DF8070040F2DC008DF804204FF0640C5F
:103F7000C2F2000001AA4E210423CDF800C0FDF7D3
:103F8000C5FB02B080BD0000F0B583B0017821B35D
:103F900040F2DC04461E6427C2F2000402AD00BFFA
:103FA00021F00F00090100F10D0209308DF8090020
:103FB00001F10D008DF80A0001F109008DF80820CB
:103FC0008DF80B0020464E212A4604230097FDF76A
:103FD0009DFBB17801360029E2D103B0F0BD0000AD
:103FE00096B0FDF7CDFC00240120CDE90B44CDE9CE
:103FF00009440A9010200B904FF4E01002250F9016
:1040000006A8CDE907441594CDE913440695CDE9FA
:104010000D54FDF765FF28B1EFF3108072B600BFB5
:10402000FEE700BF0F20CDE901054FF4A06004902A
:104030004FF48060059001A801210394FDF748FE2C
:1040400020B1EFF3108072B6FEE700BF4FF480405E
:104050000224149012A81294FDF7B4FD20B1EFF3DE
:10406000108072B6FEE700BF41F21800C4F20200F1
:10407000016841F2000541F0100101600168C4F2DD
:10408000010501F0100106910699016842F200490C
:1040900041F0200101600168002201F02001069139
:1040A00006990168C4F2010941F004010160016848
:1040B0004FF4005601F004010691069901680027AB
:1040C00041F00801016000684FF4005100F0080061
:1040D000069006982846FCF717FF099406AC06964A
:1040E000012628462146CDE90767FCF7FFFD4FF47E
:1040F0000040CDE90607284621460896FCF7F6FD64
:1041000040F27008C2F20008404640F83C9F4FF46D
:10411000602106730775C161C0E901770661FCF78C
:10412000B9FA28B1EFF3108072B600BFFEE700BF06
:1041300008F13C0406A92046CDE906760897FCF76D
:10414000DFF928B1EFF3108072B600BFFEE700BFC1
:1041500040F2DC00A5F53C41C2F2000048F2A0624A
:1041600000264FF48043C0F2010280E84600C0E917
:104170000363C0E90566C0E90766FDF705FA28B1E3
:10418000EFF3108072B600BFFEE700BF40F23010C0
:1041900009F50061C2F200004FF6FF720496CDE906
:1041A0000266CDE91466CDE91266CDE91066C0E974
:1041B0000016C0E90262C0E904668661FEF7C2F833
:1041C00020B1EFF3108072B6FEE700BF4FF48050CD
:1041D000019040F23010C2F2000001A9FEF776F91A
:1041E00020B1EFF3108072B6FEE700BF40F230104E
:1041F000C2F20000FEF722FB20B1EFF3108072B68E
:10420000FEE700BF042006905020079040F23010D7
:104210000026C2F2000006A9CDE908660A96FEF75C
:1042200083FF28B1EFF3108072B600BFFEE700BF36
:104230000120CDE9130640F23010C2F2000012A9AD
:10424000002212961596FEF739FA18B1EFF3108096
:1042500072B6FEE70220CDE9120040F23010C2F241
:10426000000012A90422FEF729FA18B1EFF310801A
:1042700072B6FEE740F230100026C2F2000010A92C
:10428000CDE91066FEF720F820B1EFF3108072B68A
:10429000FEE700BF40F27810A5F58631C2F20000BB
:1042A00040F2E7330496CDE90266CDE91266CDE926
:1042B0000B66CDE90966232280E84600C0E9033693
:1042C0008661FEF73FF818B1EFF3108072B6FEE793
:1042D0004FF48050019040F27810C2F2000001A922
:1042E000FEF7F4F820B1EFF3108072B6FEE700BFDE
:1042F00040F27810C2F20000FEF710FE20B1EFF39A
:10430000108072B6FEE700BF40F27810C2F20000E3
:1043100012A9FDF7D9FF18B1EFF3108072B6FEE7CE
:104320006020069040F278104FF00009C2F20000C1
:1043300006A90822CDE90799CDF82890FEF7E8FCF8
:1043400020B1EFF3108072B6FEE700BF40F278159F
:10435000C2F200052846FEF7B1FCFFF75BFD2846D8
:104360000821FEF755FE40F23016C2F20006304634
:104370000021FEF753FB30460421FEF7D7FA40F642
:10438000E83B08F10500009041F20800C4F201008A
:104390000068000408D498F800000130C1B2012977
:1043A00088BF002088F80000D8F81400A0F2E93196
:1043B000594505D840F68A41884221D914204EE05B
:1043C00040F6D271884240F27810C2F20000C8F87C
:1043D00024901FD3006888F80290C0F83C9098F8A9
:1043E0000000012808BF88F80090FFF7E9FC0020D2
:1043F0000021FFF79BFD0FF2C840FFF7C5FD04E267
:10440000B0F5F06F22D940F68A4188421ED02020B4
:1044100025E000BF0068C0F83C9098F80000012833
:1044200008BF88F80090FFF7CBFC4FF4FA70FCF758
:1044300049FC00200021FFF779FD45F2F310C0F69A
:104440000000FFF7A1FD4FF4FA70DCE1A0F29D40FF
:1044500040F2E32188424FF0000038BF3F2098F837
:104460000010C8F8180001293CD0002940F0CD8187
:1044700040F27810C2F200000068C8F81C90C8F83A
:104480002090C0F83C90FFF79BFC00200021FFF734
:104490004DFD0FF2A040FFF777FD01200021FFF74F
:1044A00045FD0FF29840FFF76FFD01200F21FFF748
:1044B0003DFD45F2DC10C0F60000FFF765FDD8F8C1
:1044C000182008F1030645F2F9113046C0F6000144
:1044D000FBF77EFE01200C21FFF728FD3046FFF799
:1044E00053FD92E1FFF76CFC00200021FFF71EFD59
:1044F0000FF2D830FFF748FD01200021FFF716FD2D
:104500000FF2D830FFF740FD01200F21FFF70EFD1D
:1045100045F2DC10C0F60000FFF736FD009DD8F82C
:10452000242045F2F9112846C0F60001FBF750FEA1
:1045300001200C21FFF7FAFC2846FFF725FD40F289
:104540007810C2F20000D8E90A6A056840F2E73044
:104550000021C8F81CA0C8F82060E8633046C4F207
:10456000400100F0D0FB002840F0BB800021304625
:10457000C4F2C22100F0B2FB002840F0B28048F241
:1045800000015046C4F2774100F0B6FB002840F02D
:10459000A88048F200015046C4F27C4100F0A5FB1F
:1045A000002840F09E8030464FF0824100F09DFB95
:1045B00010B9C8F8249094E030464FF0824100F0E2
:1045C000A2FB48B900213046C4F2201100F08DFB57
:1045D00010B901203AE000BF00213046C4F220119A
:1045E00000F091FB80B900213046C4F2AA2100F00E
:1045F00075FB48B9304600F0D5FA43F233334FF03B
:104600003332C3F6E3731DE000213046C4F2AA2121
:1046100000F072FB002840F0418100213046C4F2D6
:10462000C02100F05BFB002840F0388100213046BB
:10463000CCF2802100F0E2FA00F0B4FA002300226C
:10464000C4F2040300F0B0F900F080F9C8F82400C7
:10465000D8F81810884244D9C8F82490A8F80090D7
:10466000C5F83C90FFF7ACFB4FF4FA70FCF72AFB5F
:1046700000200021FFF75AFC45F2F310C0F60000BD
:10468000FFF782FC01200021FFF750FC96A0FFF706
:104690007BFC4FF4FA70FCF715FB98F80100013031
:1046A000C1B2052988F80100DCD3FFF789FB00209F
:1046B0000021FFF73BFC45F2DE10C0F60000FFF7DB
:1046C00063FC01200021FFF731FC45F2ED10C0F63C
:1046D0000000FFF759FC4FF4FA60FCF7F3FAD8E951
:1046E00007A600213046C4F2C22100F005FBA8BB9A
:1046F00000213046C4F2CA2100F0F7FA70BB48F23C
:1047000000015046C4F2774100F0F6FA30BB48F29F
:1047100000015046C4F27C4100F0E7FAF0B998F885
:104720000200C8F82490013088F8020040F27810A6
:10473000C2F20000006888F80090C0F83C90FFF7D3
:104740003FFB00200021FFF7F1FB72A0FFF71CFCEC
:1047500001200021FFF7EAFB72A036E0002130467D
:10476000C4F2400100F0C1FA00284ED148F2000125
:104770005046C4F2774100F0BFFA002845D148F214
:1047800000015046C4F27C4100F0AFFAE8BB98F853
:104790000200C8F82490013088F8020040F2781036
:1047A000C2F20000006888F80090C0F83C90FFF763
:1047B00007FB00200021FFF7B9FB4FA0FFF7E4FB48
:1047C00001200021FFF7B2FB4EA0FFF7DDFB98F8B8
:1047D0000200022815D3FFF7F3FA00200021FFF7AB
:1047E000A5FB45F2DE10C0F60000FFF7CDFB01206F
:1047F0000021FFF79BFB45F2ED10C0F60000FFF72C
:10480000C3FB4FF4FA60FCF75DFA6420FCF75AFA38
:1048100088F801902046FCF751F920460A21FCF760
:1048200019F82046FBF732FFD8F830100844C8F8D2
:1048300030002046FCF7A8F9D8F80C00D8F834105E
:1048400000F0DCF90646D8F81000D8F83810C8F89F
:10485000346000F0D3F9074698F80100C8F83870C2
:10486000411CC8B2142888F80110D3D3D8F83010EE
:10487000B1FBF0F1C8F8141000F04EFB05463046CD
:10488000294600F053FAC8F828003846294600F0B7
:104890004DFAC8E90B09C8E90D9975E500213046C4
:1048A000C4F2C02100F01AFA10B15020CEE600BFC9
:1048B000D8F82400D8F8181088423FF6CDAE10E79B
:1048C0004E4F5420504C554720494E0041434345DC
:1048D0005054204348415247494E470041435455A4
:1048E000414C204355523A004F5645524C4F41449B
:1048F000204355520000000054484520455643537C
:10490000000000004E4F5420415641494C41424C5A
:10491000450000004556435320554E414343455002
:104920005400000053544F50204348415247494ED1
:1049300047000000504C5547474544004D41582022
:1049400043555252454E543A000000004FEA11536D
:10495000A3F58063D3F11E03A8BFD3F1200C08DBBD
:104960004FF0004242EAC12252EA505232FA03F0BA
:10497000704709420BD4102BC4BF0020704703F5C9
:10498000787CBCF1FF3F05D04FF0FF3070474FF00F
:104990000000704770B500F0B1F800BF4992248064
:1049A00000207047F0E7000070B5DFF848C11CEA4E
:1049B000111E1EBF1CEA13159EEA0C0F95EA0C0F80
:1049C00000F06F8081EA03044EEAD47EAE4421EA0F
:1049D0004C1123EA4C1341F4801143F48013AEF1DF
:1049E0007F7EA1FB024CA0FB0365361955EB0C053D
:1049F000A1FB034C4CF10003A0FB021C16EB0C06C0
:104A0000654153F10003094218BF46F0010613F453
:104A1000007F0BD14FEA03314FEA053041EA1551CF
:104A200040EA165034036FF003020AE04FEAC32154
:104A30004FEAC52041EA555140EA5650F4026FF062
:104A4000020202EB2E4201EB025585EACE710AD03A
:104A50005FEA440C18BF24F0004450F1000041F11B
:104A6000000120EAD47040F2FE7C624500D270BDA5
:104A7000A84214BF4FF080444FF04044002E08BFBE
:104A80000024BEF1806FA8BFA1F1C041BDE8704015
:104A900080F2828001F1C04101F000414FF000003E
:104AA00070470CEA13159EEA0C0F18BF95EA0C0F1D
:104AB00006D081EA030E4FF000000EF0004170BDF9
:104AC00000F01CF88900013E00F007B800F009B8BA
:104AD0004FEA430C5FEA5C5C08D081EA030100F016
:104AE0005BB84FEA410C5FEA5C5CF6D102494FF0DB
:104AF000000070470000FF070000F87F0EF1020E73
:104B00002EF0030E5EF8046B364205D4012A43EB07
:104B1000030515F5001F12D8012841EB010C1CF507
:104B2000001F0CD80ED14FEAD17C0CEB4C0C0CF1D1
:104B3000020C15F5001F08BF4CEBD37C04E04FF0CE
:104B4000080C01E04FEAD37C0CEB4C0526FA05F685
:104B500006F00706B6F1040C06D20EEB860CBDE893
:104B600070404CF0010C6047DFE80CF0090B0202CA
:104B70004FF00041A1F500214FF0000070BD194633
:104B80001046012851EB010418BFD4F5001484BF6E
:104B9000002001F0004170BD0808A0F500114FEAA7
:104BA0003101704743004FEAD30C4FEA3C0C4340BD
:104BB0001FBF40070CF1605113F0FE4F70471CF00F
:104BC000006F03D10CF00041002070470CF000434F
:104BD00043EA507040EACC0010B500F019FA00BF6B
:104BE000000000924FEA0001FFF7D6BF4FF00041EE
:104BF000A1F500214FF000007047000090EA010F7E
:104C000048BF81F0004100F15682421A3CBF801A31
:104C100089184FEAD052A2EBD1534FF07F4C1CEAD7
:104C2000410F18BF9CEA026F00F03B804FF0004C30
:104C30004CEA00204CEA012121FA03FC10EB0C0C99
:104C40001ED202F1FF325FEA1C2040EBC25038BF97
:104C500070471CF07F0F4FEA400C18BFBCF17F4F2C
:104C600038BF7047C3F12003994008BF20F001000E
:104C7000BCF17F4F38BF7047A0F1C04000F00EBAC2
:104C80004FEA3C00000A40EBC25028BF1CF0FF0F67
:104C90004FEA400CE6D018BFBCF17F4F38BF7047D9
:104CA000EAE79CEA026F05D010EA5C0F08BF00F04B
:104CB0000040704710B500F0ABF900BF64FBBE3E8A
:104CC00010B500F0F5F80CBF0120002010BD10B5A4
:104CD00000F0EEF814BF0120002010BD10B500F068
:104CE0002FF98CBF0120002010BD10B500F028F96D
:104CF0002CBF0120002010BD10B500F055F994BF65
:104D00000120002010BD10B500F04EF934BF012085
:104D1000002010BD401058BFC0F14040491058BF9E
:104D2000C1F140418142EFF3008070474FF47F0CA6
:104D30001CEAD0121EBF1CEAD11392EA0C0F93EAB0
:104D40000C0F00F0858090EA010F48BF42F480729A
:104D500040F4000C41F400002CF07F4120F07F4033
:104D600000B5A2EB030281420FF2081CACEB504EDF
:104D70009EF800E0C0F100004FEA4E0E00FB0EFC72
:104D800038BF49004FEA2C1C0CFB0EF34FEACE1E35
:104D90000EEB635E4FEA112C0EFB0CFC4FEAC121B7
:104DA0004FEA1C5300FB031102F5FA024FEA112CE3
:104DB0000EFB0CFC4FEA01314FEADC4C00FB0C11FE
:104DC00042EB2242C14228BF09184CEB03335DF885
:104DD00004EB10EB410143EBC250B2F57C0F38BF3E
:104DE000704729D512F0F00F1CBF00F1C04000F051
:104DF00000407047008182838485868788898B8CF8
:104E00008D8E8F919293959697999A9C9D9FA0A233
:104E1000A3A5A7A8AAACAEB0B2B3B5B7B9BCBEC083
:104E2000C2C5C7C9CCCED1D4D7D9DCDFE2E6E9EC24
:104E3000F0F3F7FAFE0000004FEA400C0CF1807C22
:104E4000BCF17E4F28BF7047B0F1C04000F026B9DA
:104E50000CEAD11390EA010F48BF42F48072624518
:104E600038BF634507D213F47F0F16D080EA0100E4
:104E700000F00040704710B500F0CAF8097EFC3E13
:104E800000F005B880EA010000F00040704780EAB9
:104E9000010000F0004000F001B912F47F0F04BFE0
:104EA0000248704780EA010000F0F8B80000C07FB7
:104EB00050EA010C00F113801CF5000F58BFBCF53F
:104EC000000F01D48842704707D710F5000F58BF74
:104ED00011F5000F15D488427047894270471CF5C0
:104EE000000F04D5BCF5000FF7D5814270474FF095
:104EF000807C1CEB400F38BF1CEB410F01D281427C
:104F0000704710B500F084F8922449004FF000502B
:104F10004FF08051FFF7FEBEB0FA80F310FA03F2B3
:104F2000C3F19D030AD0D90501EB1220530638BF07
:104F3000704700F1010008BF20F001007047000039
:104F400050EA010C00F113801CF5000F58BFBCF5AE
:104F5000000F01D48842704707D710F5000F58BFE3
:104F600011F5000F15D488427047894270471CF52F
:104F7000000F04D5BCF5000FF7D5814270474FF004
:104F8000807C1CEB400F38BF1CEB410F01D28142EB
:104F9000704710B500F03CF8922449004FF0805063
:104FA0004FF00051FFF7B6BE50EA010C00F113803C
:104FB0001CF5000F58BFBCF5000F01D488427047A4
:104FC00007D710F5000F58BF11F5000F15D4884210
:104FD0007047894270471CF5000F04D5BCF5000FDF
:104FE000F7D5814270474FF0807C1CEB400F38BFF3
:104FF0001CEB410F01D28142704710B500F008F858
:10500000922449004FF000504FF08051FFF782BECC
:105010000EF1020E2EF0030E5EF8044B244204D46F
:105020004FEA4102B2F17F4F11D84FEA4003B3F18A
:105030007F4F0CD80ED14FEAD07C0CEB4C0C0CF10E
:10504000020CB2F17F4F08BF4CEBD17C04E04FF073
:10505000080C01E04FEAD17C0CEB4C0324FA03F47A
:1050600004F00704B4F1040C06D20EEB840CBDE886
:1050700010404CF0010C6047DFE80CF0070802021A
:105080004FF00040A0F5800010BD0846420018BF58
:10509000D2F1807288BF00F0004010BDFF2141EACC
:1050A000D050C0057047000090EA010F48BF81F062
:1050B00000413FF5AAAD421A04D882F00042A0EBAD
:1050C000020011444FEAD052A2EBD1534FF07F4C73
:1050D0001CEA410F18BF9CEA026F4AD04FF0004C07
:1050E0004CEA00204CEA012121FA03FCB0EB0C0C45
:1050F0000FD412F0FE0F36D05FEA4C001DD500121F
:1051000040EBC25038BF70471CF03F0F18BF7047CC
:105110000BE05FEA1C20A2F1010240EBC25038BF55
:1051200070471CF07F0F18BF7047C3F120039940F0
:1051300014BF401E20F0010070474FEA1223800880
:1051400008BF7047B0FA80FCA2EB0C02CCF1280C2F
:1051500060FA0CF093EA122F04BF00EBC2507047C4
:105160004FEAC3707047130A5FEADC1008BF70474C
:10517000F6E79CEA026F04D010EA5C0F08BF00203B
:10518000704710B5FFF744FF40DFF63E81F0004066
:105190007047000000000000000001020304060741
:1051A00008090000000001020304010202030405D3
:1051B000060708090A0B0C0D0E0F10100200000064
:1051C000040000000800000010000000FDFFFFFFC9
:1051D000FBFFFFFFF7FFFFFFEFFFFFFF4100504C1A
:1051E0004541534520504C554720494E00414741C9
:1051F000494E004552524F5200256400205200088B
:1052000000000020100000002801000830520008B3
:1052100010000020B8070000440100080000000052
:1052200001000000100000000024F4000000000055
:04000005080000ED02
:00000001FF
