:020000040800F2
:10000000A807002089010008FD1D0008F51D000853
:10001000F91D0008FD020008111E00080000000084
:10002000000000000000000000000000051E0008A5
:100030000103000800000000011E0008091E00085E
:10004000A3010008A3010008A3010008A301000800
:10005000A3010008A3010008A3010008A3010008F0
:10006000A3010008A3010008A3010008A3010008E0
:10007000A3010008A3010008A3010008A3010008D0
:10008000A3010008A3010008A3010008A3010008C0
:10009000A3010008A3010008A3010008A3010008B0
:1000A000A3010008A3010008A3010008A3010008A0
:1000B000A3010008A3010008A3010008A301000890
:1000C000A3010008A3010008A3010008A301000880
:1000D000A3010008A3010008A3010008A301000870
:1000E000A3010008A3010008A301000800F002F822
:1000F00000F03AF80AA090E8000C82448344AAF188
:100100000107DA4501D100F02FF8AFF2090EBAE885
:100110000F0013F0010F18BFFB1A43F0010318473B
:100120000C3600002C360000103A24BF78C878C185
:10013000FAD8520724BF30C830C144BF04680C60ED
:10014000704700000023002400250026103A28BF35
:1001500078C1FBD8520728BF30C148BF0B60704739
:100160001FB51FBD10B510BD00F031F81146FFF7E7
:10017000F7FF01F04FFE00F04FF803B4FFF7F2FF76
:1001800003BC00F057F800000948804709480047C1
:10019000FEE7FEE7FEE7FEE7FEE7FEE7FEE7FEE737
:1001A000FEE7FEE704480549054A064B7047000094
:1001B0000D1E0008ED000008A8010020A80700207F
:1001C000A8030020A80300207047704770477546B9
:1001D00000F02CF8AE4605006946534620F00700B3
:1001E000854618B020B5FFF7DDFFBDE820404FF091
:1001F00000064FF000074FF000084FF0000BAC4630
:10020000ACE8C009ACE8C009ACE8C009ACE8C0097A
:1002100021F007018D46704710B50446AFF300800A
:100220002046BDE81040FFF7A8BF00000048704717
:100230001000002001491820ABBEFEE72600020096
:1002400070470000B0B582B00446002001902168DC
:100250008A68D2074FD1886840F00100886040F278
:100260000800C2F2000000684DF68361C4F21B3141
:10027000A0FB0101880C01900198A0B10198013800
:100280000190019878B1019801380190019850B11E
:10029000019801380190019828B101980138019026
:1002A00001980028EAD100F0EBFC21688968C907B1
:1002B0001CD1054603E000BF8068C0071AD100F0DA
:1002C000DFFC411B20680329F6D38168C907F3D1FD
:1002D000A06A40F01000A062E06A40F00100E06215
:1002E000002084F82400012002B0B0BD002002B03C
:1002F000B0BD00BF002002B0B0BD0000FEE70000AE
:100300007047000010B581B00022009290F82420C0
:10031000012A03D10221084601B010BD4B68012219
:10032000062B80F8242017D8D0F800C003EB8303F5
:100330005A1F1F23DCF834E003FA02F40B682EEA9C
:10034000040403FA02F22243CCF83420092B03EB15
:10035000430219D936E000BFD0F800C00C2B03EBE4
:1003600083021DD8233A1F23DCF830E003FA02F49D
:100370000B682EEA040403FA02F22243CCF8302080
:10038000092B03EB43021DD8DCF8103007248968E1
:100390009440A34391401943CCF81010002130E061
:1003A000413A1F23DCF82CE003FA02F40B682EEA32
:1003B000040403FA02F22243CCF82C20092B03EBAD
:1003C0004302E1D9DCF80CE01E3A07248968944026
:1003D0002EEA0404914023F001022143102ACCF8B4
:1003E0000C100DD142F20841C4F20101A1F1080242
:1003F00094450DD0816A41F020018162012100E025
:100400000021002280F82420084601B010BD00BF62
:100410000A68120230D40A68102B42F400020A6003
:100420002CD140F20801C2F2000109684DF6836246
:10043000C4F21B32A1FB0212910C01EB81014900B5
:1004400000910099E1B10099013900910099C9B179
:100450000099013900910099B1B1009901390091D9
:10046000009999B1009901390091009900294FF044
:100470000001E8D1C5E700BF0021C2E70021C0E7C5
:100480000021BEE70021BCE70021BAE70021B8E760
:100490000068C06C70470000B0B5002800F0A8806C
:1004A0000446806A20B121688868C0070BD114E037
:1004B0000020E06284F82400204600F09BF82168C8
:1004C0008868C00709D0886820F00100886000F0C3
:1004D000D7FB21688A68D20726D1A06AC0063AD421
:1004E000A06A41F2021290430230A062E069D4E9AE
:1004F000013240EA030C531EB3FA83F35D0913463D
:10050000B2F5807F18BF2B02207D257B01284CEAA5
:10051000450030D135B3A56A45F02005A562E56AEE
:1005200045F00105E56226E0054602E08868C0075F
:10053000D3D000F0A5FB401B21680328F6D38868C0
:10054000C007F3D0A06A40F01000A062E06A40F05B
:100550000100E062A06AA06A40F01000A0620120E1
:10056000B0BD00BFD4F818C04EF60005CFF6FF7539
:1005700005EB4C352B434D68B2F5807F25F469457A
:1005800043EA05034B608B684FF2FD75CFF6E175CA
:1005900003EA050343EA00038B6001D0012A07D177
:1005A00022690023CFF6F07303EB025201E000BF93
:1005B0000022CB6A23F470031A43CA62896840F6AA
:1005C000FE62CFF61F721140814207D10020E06227
:1005D000A16A012262F30101A162B0BDA06A40F0EC
:1005E000100020F00200A062E06A40F00100E0622A
:1005F0000120B0BD70B586B040F60004C4F201041D
:10060000006804F5E05188424FF00000CDE9040095
:1006100002D006B070BD00BF41F21800C4F2020063
:10062000016802AD41F4007101600168032601F424
:10063000007101910199016841F0040101600168B4
:1006400001F0040101910199016841F00801016084
:100650000068294600F00800019001982046CDE985
:10066000026600F0F9F90220CDE9020604F5806087
:10067000294600F0F1F906B070BD0000F0B581B078
:1006800000270D460446009700F0FAFA21688A68B0
:10069000D20543D406464868C00503D4C86A10F49E
:1006A000700F45D040F20800C2F200000768022037
:1006B00000F090FB216844F624130A69B7FBF0F0C0
:1006C000C2F292431A4206D1CA6844F62413C0F219
:1006D00092031A425ED00A6942F29243C1F2492360
:1006E0001A4207D1CA6842F29243C0F249031A4241
:1006F00000F0C0800A6949F24923C0F224031A427B
:100700004FF0FC0257D1CF681F4208BF5422009B14
:1007100002FB00F7BB4253D3C3E000BFA06A40F026
:100720002000A06284F82470012001B0F0BD00BF59
:100730000868800700F1B580681C00F0A880FDB94A
:100740000868800772D50868800700F1AA800868E9
:1007500080076BD50868800700F1A38008688007D0
:1007600064D50868800700F19C80086880075DD523
:1007700008688007E4D594E00868800700F191805C
:1007800000F07EFA801B2168A842F5D9086880072E
:10079000F2D44BE00A6942F29243C1F249231A4271
:1007A0004FF0290207D1CB6842F29247C0F24907C5
:1007B0003B4208BF1422009B02FB00F7BB4270D2F1
:1007C000681C4FD055BB0098B8422FD30098013019
:1007D00000900098B84264D20098B84226D300989E
:1007E000013000900098B8425BD20098B8421DD307
:1007F0000098013000900098B84252D20098B84258
:1008000014D30098013000900098B842DBD348E040
:100810000098013000900098B84233D200F030FACE
:10082000801BA842F4D90098B842F1D2A06A40F0E7
:100830000400A062002084F82400032001B0F0BD71
:100840000098013000900098B8422AD200980130F8
:1008500000900098B84224D200980130009000988F
:10086000B8421ED20098013000900098B842E7D3F9
:1008700017E000BF5422009B02FB00F7BB429FD34E
:100880000FE000BF21680CE00868800709D4086801
:10089000800706D4086880075CBF08685FEA80703C
:1008A000F2D56FF012000860A06A40F40070A062F8
:1008B000886800F46020B0F5602F01D1207B18B16A
:1008C000002001B0F0BD00BFA06A20F48070A062DB
:1008D000A06AC004F4D4A06A40F00100A062002025
:1008E00001B0F0BD10B5044690F82400012804BF03
:1008F000022010BD012084F824002046FFF7A2FC4E
:1009000020B1002184F8241010BD00BF42F2044C35
:100910002068A16AC4F2010C40F2013291430CF547
:100920007F7201F580719042A16233D0A16A21F4F7
:100930008011A1624168490504D5A16A012363F3CE
:100940000D31A162A16A0023C9044FF0000144BF28
:10095000E16A21F00601E1626FF0020184F82430BF
:100960000160816801F46021B1F5602F06D19042E9
:100970000AD1DCF8001011F4702F05D0816841F421
:1009800080118160002010BD816841F4A001816068
:10099000002010BDDCF8001011F4702FC6D0A16A41
:1009A00041F48011A162DCF800104905C5D4C9E703
:1009B000B0B5044690F82400012804BF0220B0BD61
:1009C0000121206884F824108168C90709D0816852
:1009D00021F00101816000F053F921688968C9079D
:1009E0000ED1214651F8280F41F2011220EA0202ED
:1009F000002042F001020A60002184F82410B0BDFA
:100A0000054602E08068C007EBD000F039F9411BD1
:100A100020680329F6D38168C907F3D0A06A21466C
:100A200040F01000A06251F82C2F0120E1E70000F7
:100A3000B0B5044600F024F9054640F20000C2F2C9
:100A400000000078611C18BF044400BF00F018F9D2
:100A5000401BA042FAD3B0BD2DE9F04F82B00E6822
:100A6000002E00F0038141F20042C4F2010204238F
:100A700040F2004E904208BF03234FF6FF7CC4F2C1
:100A8000010E009300240123C1F2100C4FF0000A64
:100A90004FF0000949E000BF012704F00C030F22CA
:100AA0009A402BEA020207FA03F34FEA9A051A4327
:100AB00046F82520D1F804B040F20C455FEACB227D
:100AC000DEF8082054BF22EA080242EA0802C4F213
:100AD0000105CEF808202A685FEA8B2354BF22EA7A
:100AE000080242EA08022A605FEA8B33DEF804203B
:100AF00054BF22EA080242EA08025FEACB33CEF88A
:100B00000420DEF800204FF0010354BF22EA08025F
:100B100042EA0802CEF800200E680AF1010A36FA0D
:100B20000AF204F1040400F0A18003FA0AF816EABC
:100B3000080FF1D04E68664512DC122E56D8DFE859
:100B400006F0350B4549555555555555555555558F
:100B50005555554D510000BFD1F80C9046E000BFEF
:100B60004FF6FF72C1F2210296420FDC0022C1F261
:100B7000110296421AD00022C1F21202964215D0FA
:100B80000022C1F22102964210D02FE00022C1F2D1
:100B9000220296420AD00022C1F23102964205D0CA
:100BA0000022C1F23202964220D100BF8A684AB1C7
:100BB000012A14BFC0F81480C0F810804FF0080953
:100BC00014E000BF4FF0040910E000BFCA6802F152
:100BD00008090BE04FF0000908E000BFCA6802F105
:100BE000040903E0CA6802F10C0900BF2246064668
:100BF000BAF1080F24BF203A043637680F25954014
:100C000027EA050509FA02F22A433260CA79D206B8
:100C10007FF582AF41F21803C4F202031A68AEF501
:100C20007E7642F001021A601A6802F00102019217
:100C3000019A2AF0030256F802B040F60002C4F20C
:100C40000102904210D040F60042C4F201029042EC
:100C50003FF422AF41F20002C4F20102009F904231
:100C600008BF022719E700BF002716E702B0BDE85A
:100C7000F08F0000002A08BF0904016170470000DE
:100C800040F2A410C2F200000068704740F2000079
:100C900040F2A411C2F20000C2F2000100780A681A
:100CA000104408607047000080B542F20000C4F2B2
:100CB0000200016841F010010160032000F07AF8A1
:100CC000022000F005F800F027F8002080BD0000A9
:100CD00070B540F20006C2F2000640F20801327818
:100CE000C2F200014FF47A730968B3FBF2F20446D2
:100CF000B1FBF2F1084600F039FC0F2C4FF0010572
:100D000008D838B94FF0FF3021460022002500F006
:100D100025F87460284670BD82B041F21800C4F214
:100D200002000168022241F001010160016801F046
:100D3000010101910199416841F080514160406891
:100D400000F08050009000980420C4F20100016877
:100D500062F31A61016002B07047000010B54EF6F0
:100D60000C5CCEF2000CDCF80030C3F3022E8EF0E7
:100D70000704042C28BF0424BEF103034FF0FF3EF8
:100D80000EFA04F438BF0023A14399400EFA03F38E
:100D90009A43114300F00F0200F160430901043A45
:100DA00003F564436244002848BF02F10C03197044
:100DB00010BD00004EF60C51CEF200010A684FF64D
:100DC000FF031A4060F30A2242F0806040F0FD7099
:100DD0000860704780B5012818D0022836D0102846
:100DE00032D141F20401C4F202010A6851F8040C44
:100DF000C00129D5C2F383402DA3185CD2033DD492
:100E000040F60012C0F23D02504343E041F20400BC
:100E1000C4F20200C16940F202320A40B2F5817F99
:100E200004BF4FF4004080BD01F44071B1F5407F34
:100E30001CD0B1F5007F07D1006A49F64041800718
:100E400001EAE07080BD00BF002080BD00F0A0F985
:100E500041F20401C4F2020109680222C1F38131A6
:100E600002EB4101B0FBF1F080BD00BF50F8040C73
:100E70004FF22441800301EAE07080BD0A6810A3AC
:100E8000C2F340429A5C41F20023C0F27A03B3FB02
:100E9000F2F250430968490248BF80BD4AF6AB21CF
:100EA0004000CAF6AA21A0FB0101480880BD00BF8E
:100EB00002030405060708090A0B0C0D0E0F10109B
:100EC000010200002DE9F04182B00446007841F2B1
:100ED0001C06C007C4F202064AD0306810F08058E1
:100EE00008D1306840F080503060306800F08050A9
:100EF0000190019847F20007C4F200073868C00566
:100F000012D4386840F480703860FFF7B9FE0546A7
:100F10003868C00508D4FFF7B3FE401B6428F7D932
:100F2000032002B0BDE8F081706810F4407012D068
:100F3000616801F4407188420DD0706840F240420F
:100F4000C4F24222012320F4407113600023C00741
:100F5000136071602AD17068616820F440700843A2
:100F6000B8F1000F706003D1306820F0805030601D
:100F70002068810707D556F8181CA26821F4404163
:100F8000114346F8181CC00604D4002002B0BDE886
:100F9000F08100BF56F8180CE16820F48000084387
:100FA00046F8180C002002B0BDE8F081FFF768FE9B
:100FB000054641F2883700BF70688007CBD4FFF741
:100FC0005FFE401BB8424FF00300F5D9EBE700008D
:100FD0002DE9F04381B0002800F0858042F200083E
:100FE000C4F202080446D8F800000D4600F00700DD
:100FF00088420CD2D8F8000020F007002843C8F837
:101000000000D8F8000000F00700A8426BD120686B
:1010100041F204098107C4F2020917D5410705D539
:10102000D9F8001041F4E061C9F80010010705D5B6
:10103000D9F8001041F46051C9F80010D9F8001037
:10104000A26821F0F0011143C9F80010C00741D196
:10105000D8F8000000F00700A8420CD9D8F800002A
:1010600020F007002843C8F80000D8F8000000F07E
:101070000700A84237D12068410707D5D9F80010EA
:10108000E26821F4E0611143C9F80010000708D5B7
:10109000D9F80000216920F4605040EAC100C9F885
:1010A0000000D9F8002002F00C00082841F20020CE
:1010B000C0F27A0050D143F21C73C2F38341C0F6F0
:1010C0000003595CD2033BD440F60010C0F23D004F
:1010D000484341E0606802280AD001282AD159F823
:1010E000041C890308D4012001B0BDE8F08300BFCF
:1010F00059F8041C8901F6D5D9F8001021F0030134
:101100000843C9F80000FFF7BBFD064641F28837E7
:10111000D9F80000616800F00C00B0EB810F97D0A7
:10112000FFF7AEFD801BB842F2D9032001B0BDE845
:10113000F08300BF59F8041C8907D4D5DCE700BF51
:10114000D9F8002043F21A73C2F34042C0F60003FC
:101150009A5C4843B0FBF2F0D9F8001043F20272F7
:10116000C1F30311C0F60002515C40F2080220FAFC
:1011700001F140F20400C2F200000068C2F2000275
:101180001160FFF7A5FD002001B0BDE8F08300006D
:1011900040F2080041F20401C2F20000C4F2020170
:1011A0000068096843F21272C1F3C221C0F600025E
:1011B000515CC840704700002DE9F04182B0002822
:1011C00068D00446007841F20006C007C4F2020667
:1011D00025D0706800F00C0004281BD0706800F067
:1011E0000C00082802D17068C00313D4606800287E
:1011F00000F06881B0F5A02F00F07C81B0F5803F51
:1012000000F07C81306820F480303060306820F459
:10121000802076E13068800301D56068D0B3207803
:10122000800718D5706810F00C0F07D0706800F0B8
:101230000C0008286ED17068C0036BD4306880073A
:1012400002D52069012825D13068616920F0F800B5
:1012500040EAC1003060207800071FD420784007A2
:1012600032D4E56995B1706800F00C00082840F0B0
:101270008F80012D0ED07068216A00F480328A427E
:1012800008D1616A00F47010884203D1002002B0D6
:10129000BDE8F081012002B0BDE8F081A06900281E
:1012A00062D00020C4F242200121C0F88014FFF770
:1012B000E7FC0546706A800700F18C80FFF7E0FCD0
:1012C000401B0228F6D92AE1F06910F0805808D1B5
:1012D000F06940F08050F061F06900F080500090BB
:1012E000009847F20007C4F200073868C00529D407
:1012F000386840F480703860FFF7C2FC054600BFD4
:101300003868C0051ED4FFF7BBFC401B6428F7D922
:1013100005E100BF2069002840F20000C4F242202D
:1013200000F0828001210160FFF7AAFC054600BFA2
:10133000306880073FF588AFFFF7A2FC401B02280A
:10134000F6D9ECE0E068002800F08080052800F085
:101350009780012800F09880306A20F00100306208
:10136000306A20F0040092E00020C4F24220002104
:10137000C0F88014FFF784FC054600BF706A800740
:101380007FF56CAFFFF77CFC401B0228F6D9C6E066
:101390000027C4F2422700203866FFF771FC022DB7
:1013A00005460BD13068800140F1BE80FFF768FC34
:1013B000401B02284FF00300F4D968E73068800131
:1013C0007FF564AFFFF75CFC401B02284FF0030081
:1013D000F4D95CE740F20800C2F20000006844F66D
:1013E000D351C1F26201A0FB0101480A019000BF84
:1013F00000BF0198411E002801913FF42FAF00BFAC
:101400000198411E002801913FF428AF00BF0198C8
:10141000411E002801913FF421AF00BF0198411EF9
:1014200000280191E4D119E700210160FFF728FCB1
:10143000054600BF306880077FF50DAFFFF720FC41
:10144000401B02284FF00300F4D920E7306A20F057
:1014500001003062306A20F004003062FFF710FCB7
:10146000054641F2883700BF306A800720D5FFF774
:1014700007FC401BB8424FF00300F5D907E700BF57
:10148000306A40F004003062306A40F0010030629F
:10149000FFF7F6FB054641F2883700BF306A800748
:1014A00006D4FFF7EDFB401BB842F7D937E000BF89
:1014B000B8F1000F7FF4D5AEF06920F08050F061F4
:1014C000CFE600BF306820F480303060306820F410
:1014D00080203060FFF7D4FB054600BF30688003F2
:1014E0007FF59DAEFFF7CCFB401B64284FF0030057
:1014F000F4D9CCE6306840F480203060306840F4A5
:1015000080303060FFF7BCFB054600BF30688003C9
:101510003FF585AEFFF7B4FB401B6428F6D90320E6
:1015200002B0BDE8F08100BF206AB0F5803F05D170
:101530007168A26821F40031114371607168626AB8
:1015400021F4741111430843706001203866FFF7DD
:1015500097FB0446306880013FF598AEFFF790FB9B
:10156000001B02284FF00300F4D990E6411E002032
:10157000B0EB116F1CBF012070474EF21002CEF28B
:10158000000251604EF62351CEF20001F0230B70A1
:10159000072190601160704710B590F83C20012A37
:1015A0004FF0020233D080F83D200268D2F804E008
:1015B000D2F808C00C682EF07003234340F2FF7489
:1015C000C4F20004A24253600ADCB2F1804F13D08F
:1015D00040F20043C4F200039A420DD011E000BF74
:1015E00042F60043C4F201039A4205D040F60003DC
:1015F000C4F200039A4204D149682CF080031943D5
:1016000091600121002280F83D1080F83C201046B6
:1016100010BD0000002804BF0120704710B504462B
:1016200090F83D0028B9002084F83C00204600F0E6
:1016300067F8022084F83D00206840F2FF730268DA
:10164000C4F2000342F6004C9842C4F2010C15DCCF
:10165000B0F1804F1AD040F20041C4F2000188423C
:1016600014D0984218DCB0F1804F1DD040F20041F8
:10167000C4F20001884217D01AE000BF604505D0CF
:1016800040F60001C4F200018842EAD1A16822F0CC
:1016900070020A439842E6DD604505D040F600013D
:1016A000C4F20001884203D1216922F440720A4346
:1016B000A36922F08001D4F804E0E2681943604590
:1016C0000160C262C0F828E002D16169CCF8301034
:1016D00001214161002084F8461084F83E1084F80E
:1016E0003F1084F8401084F8411084F8421084F8C8
:1016F000431084F8441084F8451084F83D1010BD60
:1017000082B0006840F60001C4F20001884211D0A6
:10171000B0F1804F1BD141F21C00C4F202000168FD
:1017200041F001010160006800F0010001900198A2
:1017300002B0704741F21C00C4F20200016841F09F
:1017400004010160006800F004000090009802B0FD
:101750007047000080B590F83C20012A4FF002024B
:1017600000F0C28080F83D20D0F800C04FF67772BC
:10177000DCF8083023EA0202CCF808200B684F2B73
:1017800028DC1F2B44DD202B45D0302B43D0402BB1
:1017900040F0AC80D1F804E0C968DCF82030DCF817
:1017A000202022F00102CCF82020DCF8182022F0C2
:1017B000F00242EA011123F00A0242EA0E02CCF8DA
:1017C0001810CCF82020DCF8081041F0470121F077
:1017D000300180E06F2B27DDB3F5005F48D0B3F513
:1017E000805F7AD0702B40F08180D1E901E3C96835
:1017F000DCF8082043EA0E0322F47F4243EA012189
:101800001143CCF80810DCF8081041F0770162E0D1
:101810000BB1102B6AD1DCF8081021F070011943CC
:1018200041F0070157E000BF502B35D0602B5DD150
:10183000D1F804E0C968DCF82030DCF8202022F080
:101840001002CCF82020DCF8182022F4704242EA82
:10185000013123F0A00242EA0E12CCF81810CCF8A5
:101860002020DCF8081041F0670121F0100132E07F
:10187000D1E901E3C968DCF8082043EA0E0322F449
:101880007F4243EA01211143CCF80810DCF808102C
:1018900041F480411FE000BFD1F804E0C968DCF8E2
:1018A0002030DCF8202022F00102CCF82020DCF8E7
:1018B000182022F0F00242EA011123F00A0242EA63
:1018C0000E02CCF81810CCF82020DCF8081041F0FB
:1018D000570121F02001CCF808100022012180F8E6
:1018E0003D10002180F83C10104680BD0122F5E734
:1018F00080B586B0006840F60001C4F2000188425D
:101900004FF00001CDE90411CDE9021134D040F2CD
:101910000041C4F2000188424AD0B0F1804F45D165
:1019200041F21800C4F20200016841F004010160B4
:10193000006802A900F00400019001984FF40040F3
:10194000029002200390059040F60040C4F201008E
:10195000A0F58060FFF780F80420C4F20100016860
:101960004FF6FF42CFF6FF02114041F0E06141F433
:101970008071016006B080BD41F21800C4F202001F
:10198000016841F008010160006802A900F0080048
:10199000019001984FF4007002900220039005908E
:1019A00040F60040C4F20100FFF756F806B080BDD3
:1019B00041F21800C4F20200016841F00801016020
:1019C000006802A900F0080001900198012002902F
:1019D00002200390059040F60040C4F20100FFF79A
:1019E0003BF806B080BD00002DE9F04390F83C3094
:1019F000012B04BF0220BDE8F0834FEAB202032AA4
:101A00003CD8DFE802F0034381BD00BF036842F623
:101A100000461D6A1A6AC4F2010622F001021A6227
:101A20001A465C6852F818CFB3428E68D1F800E0CD
:101A300025F0020545EA06050CD1CE68D1E9057806
:101A400024F4407425F00C0526F004063C4335438D
:101A500044EA08042CF0730747EA0E075C609F61B4
:101A60004F6809695F631D629F6947F008079F61BE
:101A70009F6927F004079F61B2E000BF01210022A7
:101A800080F83C200846BDE8F08300BF036842F6BA
:101A900000461D6A1A6AC4F2010622F010021A6298
:101AA0001A46D3F804C052F8184FB3428E68D1F8E2
:101AB00000E025F0200545EA061510D1CE68D1E9F1
:101AC000058725F0C0096FF0400505EA06152CF4DE
:101AD000406647EA080745EA090546EA870C24F408
:101AE000E64444EA0E27C3F804C09F614F680969C1
:101AF0009F631D629F6947F400679F619F6927F498
:101B000080679F616BE000BF036842F600461D6A74
:101B10001A6AC4F2010622F480721A621A46D3F8D5
:101B200004C052F81CEFB3428E680C6825F40075AF
:101B300045EA062511D1CE68D1E9058725F440692B
:101B4000360240F2FF4526EA05052CF4405647EAE6
:101B5000080745EA090546EA071C2EF073072743E4
:101B6000C3F804C0DF614F680969DF631D62DF6984
:101B700047F00807DF61DF6927F00407DF612FE026
:101B8000036842F60047D3F820C01A6AC4F201077E
:101B900022F480521A621A465C6852F81C5FD1F82F
:101BA00000E08E68BB4204D14F6924F4804444EACB
:101BB00087142CF4005747EA063725F4E64646EA30
:101BC0000E265C60DE614E6809691E641F62DF6973
:101BD00047F40067DF61DF6927F48067DF6109028E
:101BE0001368194311600021002280F83C20084648
:101BF000BDE8F083002804BF0120704710B50446FB
:101C000090F83D0028B9002084F83C00204600F000
:101C100067F8022084F83D00206840F2FF730268F4
:101C2000C4F2000342F6004C9842C4F2010C15DCE9
:101C3000B0F1804F1AD040F20041C4F20001884256
:101C400014D0984218DCB0F1804F1DD040F2004112
:101C5000C4F20001884217D01AE000BF604505D0E9
:101C600040F60001C4F200018842EAD1A16822F0E6
:101C700070020A439842E6DD604505D040F6000157
:101C8000C4F20001884203D1216922F440720A4360
:101C9000A36922F08001D4F804E0E26819436045AA
:101CA0000160C262C0F828E002D16169CCF830104E
:101CB00001214161002084F8461084F83E1084F828
:101CC0003F1084F8401084F8411084F8421084F8E2
:101CD000431084F8441084F8451084F83D1010BD7A
:101CE00081B0006840F20041C4F20001884201D096
:101CF00001B0704741F21C00C4F20200016841F0DB
:101D000002010160006800F002000090009801B03C
:101D10007047000041B1082910D0042914BF00F118
:101D2000410200F13F020BE090F83E20012A1CBF67
:101D300001207047022280F83E2013E000F14002AB
:101D40001278012A1CBF012070470222082907D0FF
:101D5000042914BF80F8412080F83F2002E000BF32
:101D600080F84020006801F01F010122036A8A40C8
:101D700023EA02010162036A42F64441C4F201010E
:101D80001A43A1F14403984202620FD040F2FF715E
:101D9000C4F20001884213DCB0F1804F1CD040F245
:101DA0000041C4F20001884216D01CE00A6842F4E7
:101DB00000420A6040F2FF71C4F200018842EBDD8C
:101DC00042F60041C4F20101884205D040F600010C
:101DD000C4F20001884206D1816801F0070106299A
:101DE00004BF00207047016841F00101016000203C
:101DF00070470000FEE70000FEE70000FEE700007D
:101E00007047000070470000FEF740BF70470000B9
:101E1000FEE7000098B0FEF747FF00240120CDE95F
:101E20001344CDE911441290102013904FF4E010A8
:101E3000022517900EA8CDE90F440794CDE905447B
:101E40000E95CDE91554FFF7B7F928B1EFF31080DF
:101E500072B600BFFEE700BF0F20CDE908054FF4C2
:101E60008060CDE90B0408A801210A94FFF7B0F8BF
:101E700020B1EFF3108072B6FEE700BF4FF4804050
:101E80000225069004A80495FFF71CF820B1EFF393
:101E9000108072B6FEE700BF41F21800C4F20200E3
:101EA000016841F2000841F0100101600168C4F2CC
:101EB000010801F010010E910E99016840F20047EF
:101EC00041F0200101600168002201F020010E9123
:101ED0000E990168C4F2000741F004010160016835
:101EE0004FF4005401F004010E910E990168002690
:101EF00041F00801016000684FF4005100F0080053
:101F00000E900E984046FEF7B5FE11950EAD0E945C
:101F1000012440462946CDE90F46FEF79DFD4FF4CA
:101F20008070CDE90E0607F5843029461094FEF73F
:101F300093FD40F27009C2F2000942F20041C4F27E
:101F40000101484640F82C1F4FF4602106730675C6
:101F5000C161C0E901660461FEF79EFA20B1EFF3AA
:101F6000108072B6FEE700BF09F12C050EA92846C5
:101F7000CDE90E641096FEF7C5F928B1EFF3108095
:101F800072B600BFFEE700BF40F2CC000021C2F2F3
:101F9000000040F2E7360B91CDE90911CDE90411BB
:101FA000CDE91311CDE911114FF080422323C0E98F
:101FB000021601618021C0E900238161FFF72AFB3D
:101FC00020B1EFF3108072B6FEE700BF4FF48050EF
:101FD000089040F2CC00C2F2000008A9FFF7BAFB5B
:101FE00020B1EFF3108072B6FEE700BF40F2CC00E4
:101FF000C2F20000FFF7FEFD20B1EFF3108072B6D1
:10200000FEE700BF40F2CC00C2F2000004A9FFF7D7
:10201000C3FA28B1EFF3108072B600BFFEE700BF2D
:1020200060200E9040F2CC000024C2F200000EA905
:102030000022CDE90F441294FFF7D6FC20B1EFF354
:10204000108072B6FEE700BF40F2CC06C2F2000676
:102050003046FFF74DFC40F21410C2F2000023217D
:1020600040F2E732C0E900718021CDE90844CDE9B2
:102070001344CDE91144C0E9024204618161FFF7D4
:10208000B9FD18B1EFF3108072B6FEE740F21410FC
:10209000C2F2000008A9FFF77FFA18B1EFF3108031
:1020A00072B6FEE760200E9040F214100024C2F2D7
:1020B00000000EA90822CDE90F441294FFF794FC0A
:1020C00020B1EFF3108072B6FEE700BF40F2141BA0
:1020D000C2F2000B5846FFF70BFC40F25C1007F50C
:1020E0008061C2F20000232240F2E73380E816004C
:1020F00080210B94CDE90944CDE90444CDE9134492
:10210000CDE91144C0E903348161FFF783FA18B1C6
:10211000EFF3108072B6FEE74FF48050089040F263
:102120005C10C2F2000008A9FFF714FB20B1EFF326
:10213000108072B6FEE700BF40F25C10C2F20000F1
:10214000FFF758FD20B1EFF3108072B6FEE700BF35
:1021500040F25C10C2F2000004A9FFF71DFA18B1AA
:10216000EFF3108072B6FEE760200E9040F25C1034
:102170004FF0000AC2F200000EA90C22CDE90FAA0E
:10218000CDF848A0FFF730FC20B1EFF3108072B615
:10219000FEE700BF40F25C14C2F200042046FFF7E5
:1021A000A7FB58460821FFF7B5FD30460021FFF791
:1021B000B1FD20460C21FFF7ADFD01240EAF4FF617
:1021C0000840CFF6FF7058F80000C00508D499F811
:1021D00000000130C1B2012988BF002089F8000049
:1021E000D9F8080040F6E832A0F2E931914205D86A
:1021F00040F68A41884225D9142036E040F25C102E
:10220000C2F200004CF200010068C4F27441C9F847
:10221000141040F2D33189F802A0016430684FF401
:102220000051C0F834A0DBF800000122C0F83CA047
:102230004046FEF71FFD99F80000012808BF89F805
:1022400000A04AE1B0F5F06F06D940F68A41884215
:1022500002D0202009E000BFA0F29D4040F2E3211F
:1022600088424FF0000038BF3F2099F8001089F8ED
:10227000020001294AD0002940F02F81D9F80C0032
:102280004FF07E51029000F037FF99F801100028BE
:1022900003915BD102980021C4F2E00100F025FF18
:1022A000002853D10398002850D1DBF8000040F2F9
:1022B000E731C16330680022416340464FF400516A
:1022C000FEF7D8FCD9F810000021039000F014FFAD
:1022D000002840F08D8003980021C4F2C00100F076
:1022E00004FF002840F0848040F25C10C2F200003D
:1022F00000210068C4F2B221C9F81410592189F8EC
:1023000003A089F801A00164CDE000BF4FF4807004
:10231000A9F8000040F25C10C2F200004CF200018B
:102320000068C4F27441C9F8141040F2D33101645A
:1023300030684FF40051C0F834A040460122FEF747
:1023400099FC4FF4FA70FEF773FBC6E0039801287E
:1023500015D002980021C4F2E00100F0CDFE002863
:1023600040F0BB8002980021C4F2201100F0BDFEB5
:10237000002840F0B2800398002840F0AE80DBF8DF
:10238000000040F2E73189F801A0C1633068002104
:10239000C0F834A040F25C10C2F200000068C4F241
:1023A0004421C9F814103121016440464FF4005112
:1023B0000122FEF75FFC99F80300013089F8030061
:1023C0006420FEF735FB99F803001F28C0F08580D4
:1023D00040F25C10C2F2000000210068C4F210114B
:1023E000C9F81410092189F803A0016475E000BF41
:1023F00003980021C4F2C00100F085FEB0B9039833
:102400000021C4F24C2100F069FE78B9039889F8E4
:1024100003A089F801A000F0C5FD43F233334FF06B
:102420003332C3F6E37300F063FA24E0039800212B
:10243000C4F24C2100F060FE002840F01B8103989C
:102440000021C4F2A02100F049FE002840F01281D2
:10245000039889F803A089F801A000F0A3FD0023E8
:102460000022C4F2040300F043FA00230022C4F265
:10247000500300F095F900230022C4F2240300F079
:10248000A5FB00230022CBF6F07300F089F900F0E1
:1024900055F9C9F8140000F03FFF40F25C11C2F298
:1024A00000010968086499F80200D9F81010023098
:1024B000039100F051FF0146039800F01DFE60B942
:1024C000306889F803A089F80140C0F834A040467C
:1024D0004FF400510122FEF7CDFB6420FEF7A8FA6D
:1024E00089F804A028463946CDE90EA4CDF840A0CD
:1024F000FDF708FF002840F015812846FEF7F2F9A5
:1025000028466421FEF7BAF82846FDF7C1FFD9F83E
:1025100018100844C9F818002846FEF749FA28465A
:102520003946CDE90E44CDF840A0FDF7EBFE00287A
:1025300040F0FC802846FEF7D5F928466421FEF7D6
:102540009DF82846FDF7A4FFD9F81C100844C9F8E7
:102550001C002846FEF72CFA09200EA981E8110478
:1025600028463946FDF7CEFE002840F0E380284695
:10257000FEF7B8F928466421FEF780F82846FDF7F3
:1025800087FF00F001FFD9F82010024608461146E7
:1025900000F034FDC9F820002846FEF709FA99F842
:1025A0000400411CC8B20A2889F804109AD3D9F84B
:1025B000141009F1180302910ECB0393B1FBF0F351
:1025C000B2FBF0F10193C9F82430C9F8081000F00B
:1025D000DBFE0146039800F0A9FD0390C9F828002E
:1025E0000198C9E906AAC9F820A000F0DBFA43F275
:1025F00033334FF03332C4F20B0300F0E7FA44F206
:1026000000030022C4F28F0300F0E0FA4AF6000350
:102610000022C4F2910300F0D9FACDE9001002982B
:102620004FF07E5100F0EAFC4FF20001C4F27F51FE
:1026300000F026FF0021C4F2A53100F021FF00F0D8
:10264000B1FC02460B46DDE9001000F051F900F044
:1026500075F8C9F80C0003980021C4F2C82100F0F5
:102660000FFF4FF20001C4F27F5100F05FFDC9F887
:102670001000A4E503980021C4F2A02100F02EFD73
:1026800080BB99F8000001282CD00398002100F0AD
:1026900017FD00283FF407AF99F80300013089F8CF
:1026A00003006420FEF7C4F999F803001F28FFF423
:1026B000FAAE40F25C10C2F2000000210068C4F2E1
:1026C0001011C9F81410092189F803A001643068B9
:1026D0004FF40051C0F834A040460122FEF7CAFA78
:1026E000E1E600BF4FF48070A9F8000040F25C10F2
:1026F000C2F200004CF200010068C4F27441C9F853
:10270000141040F2D331016430684FF40051C0F826
:1027100034A040460122FEF7ADFA4FF4FA70FEF7FE
:1027200087F9C0E6EFF3108072B6FEE7EFF3108092
:1027300072B6FEE7EFF3108072B6FEE721F00042BA
:1027400001F00043A2F16052B2F5801F28BFD2F120
:102750007F6C0BD95FEA001C43EAC20242EB507067
:1027600018BF704728BF20F001007047B2F5801FE6
:10277000BCBF184670474FEA410C1CF5001F02D23F
:10278000084600F044BF70B500F0CAFA00000089A6
:10279000FFF7F6BF4FF00040A0F580007047000043
:1027A00010B591EA030F48BF83F0004300F1148392
:1027B000841A71EB030C05D2121943EB0C03001BB6
:1027C00061EB0C014FEA1154A4EB135CDFF81CE140
:1027D0001EEA430F18BF9EEA445F00F0748021EAAE
:1027E000045123EA0E0343F48013DCF1200E32D3AC
:1027F00022FA0CFE10EB0E0023FA0CFE41EB0E0148
:10280000CCF1200E03FA0EFE10EB0E00CCF1200EE0
:1028100051F10001B1F5801F32D201EB045112FADF
:102820000EF2BDE8104058BF7047401C38BF5FEA49
:10283000420218BF7047002814BF20F0010041F188
:1028400000014FEA410313F5001F38BF7047A1F1A3
:10285000C04100F0B3BA012A43EB0302ACF1200CF3
:10286000DCF11F0E32BF4FF0000E23FA0CF310EB19
:10287000030041EB0451B4EB115FD0D0A1EB045144
:1028800001F58011490801EB04515FEA30000ED3D5
:1028900050F1000038BF12FA0EFE08D1BDE810401A
:1028A000C9E7401C38BF5FEA4202CAD1C3E7BDE8AE
:1028B00010404FEA410313F5001F38BF7047A1F1E4
:1028C000C04100F07BBA9EEA445F08D011EA5E0F77
:1028D000BDE8104004BF01F0004100207047BDE892
:1028E000104070B500F01CFA64FBBE3E0000E0FF33
:1028F0002DE9C04130B4DFF8A4C23CEA111418BF7E
:102900003CEA131400F0ED801CEA111481EA03057F
:1029100044EAD57418BF1CEA131500F0C880A4EB74
:10292000050404F17F7404F500344FF0004545EAD6
:10293000C12145EAC32341EA505143EA52534FEAC9
:10294000C0204FEAC222994208BF904200F09D8009
:102950004FEA13650FF24416765D4FEA134506FB06
:1029600005F7C7F1807706FB07F74FEAD737A7FBD4
:1029700003687642A7FB06CEC8F5803838BFA8F1B9
:10298000010807FB08E6A6FB028C4FF0000EE6FBF1
:1029900003CEDCF1000CCEF1004E38BFAEF1010EDB
:1029A000A6FB0C584FF00007E6FB0E87A1FB08C6FC
:1029B000A0FB07CE16EB0E064FF0000545F1000513
:1029C000E1FB076515F1E04E7EBFA4F580345FEAB8
:1029D00046066D4116F1800745F100054FEA1727BD
:1029E00047EA05674FEA15254FEA0666A6F1DE4677
:1029F000B6F1805F20D9384605EBC47124F0010C94
:102A000001EB0C11BCF1FE6F02D8F0BCBDE80081F7
:102A100024425CBF01F5801E9EEAC47F02D4F0BC54
:102A2000BDE80081244200F13980A1F1C041F0BC31
:102A3000BDE8004100F0C2B94FEAD02040EA415061
:102A40004FEAD1214FEAD22242EA43524FEAD3233E
:102A5000A7FB028607FB036605FB02661EEA0E0F54
:102A600058BFA6EB0056B6EB00564FEA520E4EEAA0
:102A7000C37E18EB0E0E56EB530EBCD518EB0208B6
:102A80005E417F1C55F10005B5E74FF480154FF00E
:102A900000074FF000064FF00008ACE701F1C0411D
:102AA00001F000414FF00000F0BCBDE800810CEAED
:102AB000131511EA0C1F00D00CE013EA0C1F00F0F4
:102AC00026804FF0000081EA030101F00041F0BCD4
:102AD000BDE80081F0BCBDE8004181EA030100F0DF
:102AE0006DB9F0BCBDE8004170B500F019F900BF48
:102AF000097EFC3E00F007B84FF0000081EA0301B8
:102B000001F00041704781EA030100F057B9F0BCC1
:102B1000BDE8004122494FF000007047FFFDFBF97E
:102B2000F7F5F4F2F0EEEDEBE9E8E6E4E3E1E0DE00
:102B3000DDDBDAD8D7D5D4D3D1D0CFCDCCCBCAC872
:102B4000C7C6C5C4C2C1C0BFBEBDBCBBBAB9B8B799
:102B5000B6B5B4B3B2B1B0AFAEADACABAAA9A8A88C
:102B6000A7A6A5A4A3A3A2A1A09F9F9E9D9C9C9B5A
:102B70009A99999897979695959493939291919005
:102B80008F8F8E8E8D8C8C8B8B8A89898888878796
:102B90008685858484838382828181800000FF070B
:102BA0000000F87FB0FA80F310FA03F10AD0C3F105
:102BB0001D0303F580634FEA03524FEA415002EBD5
:102BC000D12170474FF000007047000070B5DFF86A
:102BD00048C11CEA111E1EBF1CEA13159EEA0C0F09
:102BE00095EA0C0F00F06F8081EA03044EEAD47E70
:102BF000AE4421EA4C1123EA4C1341F4801143F412
:102C00008013AEF17F7EA1FB024CA0FB0365361959
:102C100055EB0C05A1FB034C4CF10003A0FB021C7F
:102C200016EB0C06654153F10003094218BF46F04C
:102C3000010613F4007F0BD14FEA03314FEA053050
:102C400041EA155140EA165034036FF003020AE0DE
:102C50004FEAC3214FEAC52041EA555140EA565098
:102C6000F4026FF0020202EB2E4201EB025585EAFC
:102C7000CE710AD05FEA440C18BF24F0004450F132
:102C8000000041F1000120EAD47040F2FE7C624570
:102C900000D270BDA84214BF4FF080444FF04044B2
:102CA000002E08BF0024BEF1806FA8BFA1F1C04173
:102CB000BDE8704080F2828001F1C04101F0004126
:102CC0004FF0000070470CEA13159EEA0C0F18BF76
:102CD00095EA0C0F06D081EA030E4FF000000EF0CB
:102CE000004170BD00F01CF88900013E00F007B8FB
:102CF00000F009B84FEA430C5FEA5C5C08D081EA57
:102D0000030100F05BB84FEA410C5FEA5C5CF6D16E
:102D100002494FF0000070470000FF070000F87FF5
:102D20000EF1020E2EF0030E5EF8046B364205D44F
:102D3000012A43EB030515F5001F12D8012841EBCA
:102D4000010C1CF5001F0CD80ED14FEAD17C0CEB06
:102D50004C0C0CF1020C15F5001F08BF4CEBD37C9A
:102D600004E04FF0080C01E04FEAD37C0CEB4C057B
:102D700026FA05F606F00706B6F1040C06D20EEBAD
:102D8000860CBDE870404CF0010C6047DFE80CF0A9
:102D9000090B02024FF00041A1F500214FF00000A5
:102DA00070BD19461046012851EB010418BFD4F537
:102DB000001484BF002001F0004170BD0808A0F598
:102DC00000114FEA3101704710B591EA030F48BF77
:102DD00083F000433FF5ECAC841A71EB030C07D28F
:102DE0008CF0004C121943EB0C03001B61EB0C013F
:102DF0004FEA1154A4EB135CDFF8A4E11EEA430F81
:102E000018BF9EEA445F00F0B48021EA045123EA2F
:102E10006E035242C3EB6E0338BF5B1EDCF1200E23
:102E200025D322FA0CFE10EB0E0043FA0CFE41EB08
:102E30000E01CCF1200E03FA0EFE10EB0E00CCF1C9
:102E4000200E51F1000129D401EB045112FA0EF2C7
:102E5000BDE8104058BF7047401C1CBFB2F1004F86
:102E6000704700280CBF491C20F00100704712EB8E
:102E7000020E43EB030218BF4FF0010E4EEA42026E
:102E8000ACF1200CDCF11E0E56D943FA0CFE10EB0F
:102E90000E00CCF11E0E51F1FF31D5D50EF1010E11
:102EA00012FA0EFE404141EB010101EB445C5FEA86
:102EB0005C5C10D901EB045110EBDE7038BFBEF141
:102EC000004FBDE8104018BF704700280CBF491CD8
:102ED00020F00100704734D24FEAD42C24F400646F
:102EE00011F500111BD0B1FA81F20B3AA41AA41EFD
:102EF000D2F12003914030FA03F31943904001EBE3
:102F0000CC7101EB0451002CBDE81040A8BF704704
:102F100001F1C04101F000414FF000007047B0FAEC
:102F200080F310FA03F102D1BDE810407047E41AB3
:102F3000173C4805C90AE2E701EB0451BDE810401F
:102F4000704749104FEA300001EB0451BDE81040D2
:102F500002E04FF0000170474A0008BF0042F8D07D
:102F6000B2F5001F28BF704701F000414FF000008C
:102F700070479EEA445F07D011EA5E0FBDE810403B
:102F800004BF002100207047BDE8104070B5FFF776
:102F9000C7FE00BF40DFF63E104683F00041704799
:102FA0000000E0FF43004FEAD30C4FEA3C0C4340E3
:102FB0001FBF40070CF1605113F0FE4F70471CF02B
:102FC000006F03D10CF00041002070470CF000436B
:102FD00043EA507040EACC0010B500F0D2FA00BFCE
:102FE000000000924FEA0001FFF7E8BE4FF00041F9
:102FF000A1F500214FF000007047000090EA010F9A
:1030000048BF81F0004100F10E83421A3CBF801A94
:1030100089184FEAD052A2EBD1534FF07F4C1CEAF3
:10302000410F18BF9CEA026F00F03B804FF0004C4C
:103030004CEA00204CEA012121FA03FC10EB0C0CB5
:103040001ED202F1FF325FEA1C2040EBC25038BFB3
:1030500070471CF07F0F4FEA400C18BFBCF17F4F48
:1030600038BF7047C3F12003994008BF20F001002A
:10307000BCF17F4F38BF7047A0F1C04000F0C7BA25
:103080004FEA3C00000A40EBC25028BF1CF0FF0F83
:103090004FEA400CE6D018BFBCF17F4F38BF7047F5
:1030A000EAE79CEA026F05D010EA5C0F08BF00F067
:1030B0000040704710B500F064FA00BF64FBBE3EEC
:1030C00010B500F0F5F80CBF0120002010BD10B5C0
:1030D00000F0EEF814BF0120002010BD10B500F084
:1030E00067F98CBF0120002010BD10B500F060F919
:1030F0002CBF0120002010BD10B500F08DF994BF49
:103100000120002010BD10B500F086F934BF012069
:10311000002010BD401058BFC0F14040491058BFBA
:10312000C1F140418142EFF3008070474FF47F0CC2
:103130001CEAD0121EBF1CEAD11392EA0C0F93EACC
:103140000C0F00F0858090EA010F48BF42F48072B6
:1031500040F4000C41F400002CF07F4120F07F404F
:1031600000B5A2EB030281420FF2081CACEB504EFB
:103170009EF800E0C0F100004FEA4E0E00FB0EFC8E
:1031800038BF49004FEA2C1C0CFB0EF34FEACE1E51
:103190000EEB635E4FEA112C0EFB0CFC4FEAC121D3
:1031A0004FEA1C5300FB031102F5FA024FEA112CFF
:1031B0000EFB0CFC4FEA01314FEADC4C00FB0C111A
:1031C00042EB2242C14228BF09184CEB03335DF8A1
:1031D00004EB10EB410143EBC250B2F57C0F38BF5A
:1031E000704729D512F0F00F1CBF00F1C04000F06D
:1031F00000407047008182838485868788898B8C14
:103200008D8E8F919293959697999A9C9D9FA0A24F
:10321000A3A5A7A8AAACAEB0B2B3B5B7B9BCBEC09F
:10322000C2C5C7C9CCCED1D4D7D9DCDFE2E6E9EC40
:10323000F0F3F7FAFE0000004FEA400C0CF1807C3E
:10324000BCF17E4F28BF7047B0F1C04000F0DFB93D
:103250000CEAD11390EA010F48BF42F48072624534
:1032600038BF634507D213F47F0F16D080EA010000
:1032700000F00040704710B500F083F9097EFC3E75
:1032800000F005B880EA010000F00040704780EAD5
:10329000010000F0004000F0BAB912F47F0F04BF43
:1032A0000248704780EA010000F0B1B90000C07F19
:1032B00050EA010C00F113801CF5000F58BFBCF55B
:1032C000000F01D48842704707D710F5000F58BF90
:1032D00011F5000F15D488427047894270471CF5DC
:1032E000000F04D5BCF5000FF7D5814270474FF0B1
:1032F000807C1CEB400F38BF1CEB410F01D2814298
:10330000704710B500F03DF9922449004FF000508D
:103310004FF08051FFF7FEBEC10DD1F19E0206DBDA
:103320004FEA002343F0004323FA02F070470042C3
:1033300007D54FEA4001B1F1FE4F02D24FF0000035
:10334000704710B500F01DF94992248000207047A5
:103350006FEA20007047000010F0004148BF404273
:10336000B0FA80F310FA03F2C3F19D030BD051EAD7
:10337000C35101EB1220530638BF704700F1010022
:1033800008BF20F001007047B0FA80F310FA03F292
:10339000C3F19D030AD0D90501EB1220530638BFB3
:1033A000704700F1010008BF20F0010070470000E5
:1033B00050EA010C00F113801CF5000F58BFBCF55A
:1033C000000F01D48842704707D710F5000F58BF8F
:1033D00011F5000F15D488427047894270471CF5DB
:1033E000000F04D5BCF5000FF7D5814270474FF0B0
:1033F000807C1CEB400F38BF1CEB410F01D2814297
:10340000704710B500F0BDF8922449004FF080508D
:103410004FF00051FFF77EBE50EA010C00F113801F
:103420001CF5000F58BFBCF5000F01D4884270474F
:1034300007D710F5000F58BF11F5000F15D48842BB
:103440007047894270471CF5000F04D5BCF5000F8A
:10345000F7D5814270474FF0807C1CEB400F38BF9E
:103460001CEB410F01D28142704710B500F089F882
:10347000922449004FF000504FF08051FFF74ABEB0
:103480004FF47F0C1CEAD0121EBF1CEAD11392EA43
:103490000C0F93EA0C0F00F0478090EA010F48BF31
:1034A00042F480724FF0004C4CEA00204CEA0121BB
:1034B00002EB0302A0FB0113A2F50002002918BFD2
:1034C00043F001035B0028BF4FEA330342EB224283
:1034D0005FEA132C4CEBC2502EBFBCEB436FB2F52E
:1034E0007C0F70474FEA036CBCF1004F08BF20F01F
:1034F0000100B2F57C0F38BF70470BD582F0FF0298
:1035000012F5803FC8BF704700F1C040D8BF00F03F
:103510000040704700F5000C5FEA4C0C48BF704754
:10352000B0F1C04000F073B80CEAD11390EA010F7B
:1035300048BF42F48072624538BF634504D280EAD6
:10354000010000F00040704710B500F01AF800BF0D
:103550008900013E00F007B800F009B85FEA410CAD
:103560005FEA1C6C08D080EA010000F050B85FEA06
:10357000400C5FEA1C6CF6D14FF00040A0F58000D3
:1035800070470EF1020E2EF0030E5EF8044B24423B
:1035900004D44FEA4102B2F17F4F11D84FEA400301
:1035A000B3F17F4F0CD80ED14FEAD07C0CEB4C0C12
:1035B0000CF1020CB2F17F4F08BF4CEBD17C04E060
:1035C0004FF0080C01E04FEAD17C0CEB4C0324FADD
:1035D00003F404F00704B4F1040C06D20EEB840CDF
:1035E000BDE810404CF0010C6047DFE80CF0070824
:1035F00002024FF00040A0F5800010BD08464200D6
:1036000018BFD2F1807288BF00F0004010BDFF21CA
:1036100041EAD050C005704790EA010F48BF81F0E1
:1036200000413FF5F2AC421A04D882F00042A0EB10
:10363000020011444FEAD052A2EBD1534FF07F4C1D
:103640001CEA410F18BF9CEA026F4AD04FF0004CB1
:103650004CEA00204CEA012121FA03FCB0EB0C0CEF
:103660000FD412F0FE0F36D05FEA4C001DD50012C9
:1036700040EBC25038BF70471CF03F0F18BF704777
:103680000BE05FEA1C20A2F1010240EBC25038BF00
:1036900070471CF07F0F18BF7047C3F1200399409B
:1036A00014BF401E20F0010070474FEA122380082B
:1036B00008BF7047B0FA80FCA2EB0C02CCF1280CDA
:1036C00060FA0CF093EA122F04BF00EBC25070476F
:1036D0004FEAC3707047130A5FEADC1008BF7047F7
:1036E000F6E79CEA026F04D010EA5C0F08BF0020E6
:1036F000704710B5FFF745FF40DFF63E81F0004010
:1037000070470000000000000000010203040607EB
:10371000080900000000010203040102020304057D
:10372000060708090A0B0C0D0E0F10105037000881
:103730000000002010000000280100086037000889
:10374000100000209807000044010008000000005D
:1037500001000000100000000024F4000000000040
:04000005080000ED02
:00000001FF
